{
  "_format": "hh-sol-artifact-1",
  "contractName": "NonfungibleTokenPositionDescriptor_test",
  "sourceName": "contracts/NonfungibleTokenPositionDescriptor_test.sol",
  "abi": [
    {
      "inputs": [
        {
          "internalType": "address",
          "name": "_WETH9",
          "type": "address"
        }
      ],
      "stateMutability": "nonpayable",
      "type": "constructor"
    },
    {
      "inputs": [],
      "name": "WETH9",
      "outputs": [
        {
          "internalType": "address",
          "name": "",
          "type": "address"
        }
      ],
      "stateMutability": "view",
      "type": "function"
    },
    {
      "inputs": [
        {
          "internalType": "address",
          "name": "token0",
          "type": "address"
        },
        {
          "internalType": "address",
          "name": "token1",
          "type": "address"
        },
        {
          "internalType": "uint256",
          "name": "chainId",
          "type": "uint256"
        }
      ],
      "name": "flipRatio",
      "outputs": [
        {
          "internalType": "bool",
          "name": "",
          "type": "bool"
        }
      ],
      "stateMutability": "view",
      "type": "function"
    },
    {
      "inputs": [
        {
          "internalType": "address",
          "name": "token",
          "type": "address"
        },
        {
          "internalType": "uint256",
          "name": "chainId",
          "type": "uint256"
        }
      ],
      "name": "tokenRatioPriority",
      "outputs": [
        {
          "internalType": "int256",
          "name": "",
          "type": "int256"
        }
      ],
      "stateMutability": "view",
      "type": "function"
    },
    {
      "inputs": [
        {
          "internalType": "contract INonfungiblePositionManager",
          "name": "positionManager",
          "type": "address"
        },
        {
          "internalType": "uint256",
          "name": "tokenId",
          "type": "uint256"
        }
      ],
      "name": "tokenURI",
      "outputs": [
        {
          "internalType": "string",
          "name": "",
          "type": "string"
        }
      ],
      "stateMutability": "view",
      "type": "function"
    }
  ],
  "bytecode": "0x60a060405234801561001057600080fd5b5060405161129938038061129983398101604081905261002f91610044565b60601b6001600160601b031916608052610072565b600060208284031215610055578081fd5b81516001600160a01b038116811461006b578182fd5b9392505050565b60805160601c6112066100936000398060d1528061011652506112066000f3fe608060405234801561001057600080fd5b506004361061004c5760003560e01c80634aa4a4fc146100515780637e5af7711461006f5780639d7b0ea81461008f578063e9dc6375146100af575b600080fd5b6100596100cf565b604051610066919061102f565b60405180910390f35b61008261007d366004610d3b565b6100f3565b6040516100669190611043565b6100a261009d366004610d7b565b610112565b604051610066919061104e565b6100c26100bd366004610d7b565b610229565b6040516100669190611057565b7f000000000000000000000000000000000000000000000000000000000000000081565b60006100ff8383610112565b6101098584610112565b13949350505050565b60007f00000000000000000000000000000000000000000000000000000000000000006001600160a01b0316836001600160a01b031614156101575750606319610223565b816001141561021f576001600160a01b03831673c0cc181baedc547ef3427d3642671e0c4ff09941141561018e575061012c610223565b6001600160a01b03831673cd8ee7570c5382144d1c442b6c3563a40a5e3c4a14156101bb575060c8610223565b6001600160a01b0383166101d157506064610223565b6001600160a01b0383166101e8575060c719610223565b6001600160a01b0383167362b8a1ef640b96e86d6927824e5fe682d07d3b461415610217575061012b19610223565b506000610223565b5060005b92915050565b60606000806000806000876001600160a01b03166399fbab88886040518263ffffffff1660e01b815260040161025f919061104e565b6101806040518083038186803b15801561027857600080fd5b505afa15801561028c573d6000803e3d6000fd5b505050506040513d601f19601f820116820180604052508101906102b09190610eff565b5050505050965096509650965096505050600061036e896001600160a01b031663c45a01556040518163ffffffff1660e01b815260040160206040518083038186803b1580156102ff57600080fd5b505afa158015610313573d6000803e3d6000fd5b505050506040513d601f19601f820116820180604052508101906103379190610d18565b6040518060600160405280896001600160a01b03168152602001886001600160a01b031681526020018762ffffff168152506106ad565b9050600061037f878761007d61078c565b90506000811561038f5787610391565b865b9050600082156103a157876103a3565b885b90506000846001600160a01b0316633850c7bd6040518163ffffffff1660e01b815260040160e06040518083038186803b1580156103e057600080fd5b505afa1580156103f4573d6000803e3d6000fd5b505050506040513d601f19601f820116820180604052508101906104189190610e56565b505050505091505073__$cea9be979eee3d87fb124d6cbb244bb0b5$__63c49917d7604051806101c001604052808f8152602001866001600160a01b03168152602001856001600160a01b0316815260200161047387610790565b815260200161048186610790565b8152602001866001600160a01b031663313ce5676040518163ffffffff1660e01b815260040160206040518083038186803b1580156104bf57600080fd5b505afa1580156104d3573d6000803e3d6000fd5b505050506040513d601f19601f820116820180604052508101906104f79190610ee5565b60ff168152602001856001600160a01b031663313ce5676040518163ffffffff1660e01b815260040160206040518083038186803b15801561053857600080fd5b505afa15801561054c573d6000803e3d6000fd5b505050506040513d601f19601f820116820180604052508101906105709190610ee5565b60ff16815260200187151581526020018a60020b81526020018960020b81526020018460020b8152602001886001600160a01b031663d0c93a7c6040518163ffffffff1660e01b815260040160206040518083038186803b1580156105d457600080fd5b505afa1580156105e8573d6000803e3d6000fd5b505050506040513d601f19601f8201168201806040525081019061060c9190610da6565b60020b81526020018b62ffffff168152602001886001600160a01b03168152506040518263ffffffff1660e01b8152600401610648919061106a565b60006040518083038186803b15801561066057600080fd5b505af4158015610674573d6000803e3d6000fd5b505050506040513d6000823e601f3d908101601f1916820160405261069c9190810190610dc0565b9d9c50505050505050505050505050565b600081602001516001600160a01b031682600001516001600160a01b0316106106d557600080fd5b50805160208083015160409384015184516001600160a01b0394851681850152939091168385015262ffffff166060808401919091528351808403820181526080840185528051908301206001600160f81b031960a085015294901b6001600160601b03191660a183015260b58201939093527fcf0b3414328c2bd327a4f093539d0d7d82fb94f893a2965c75cb470289cb5ac760d5808301919091528251808303909101815260f5909101909152805191012090565b4690565b606060006107a5836395d89b4160e01b6107ca565b90508051600014156107c2576107ba836109f0565b9150506107c5565b90505b919050565b60408051600481526024810182526020810180516001600160e01b03166001600160e01b031985161781529151815160609360009384936001600160a01b03891693919290918291908083835b602083106108365780518252601f199092019160209182019101610817565b6001836020036101000a038019825116818451168082178552505050505050905001915050600060405180830381855afa9150503d8060008114610896576040519150601f19603f3d011682016040523d82523d6000602084013e61089b565b606091505b50915091508115806108ac57508051155b156108ca576040518060200160405280600081525092505050610223565b8051602014156109025760008180602001905160208110156108eb57600080fd5b505190506108f8816109fd565b9350505050610223565b6040815111156109d85780806020019051602081101561092157600080fd5b8101908080516040519392919084600160201b82111561094057600080fd5b90830190602082018581111561095557600080fd5b8251600160201b81118282018810171561096e57600080fd5b82525081516020918201929091019080838360005b8381101561099b578181015183820152602001610983565b50505050905090810190601f1680156109c85780820380516001836020036101000a031916815260200191505b5060405250505092505050610223565b50506040805160208101909152600081529392505050565b60606107c2826006610b24565b604080516020808252818301909252606091600091906020820181803683370190505090506000805b6020811015610a87576000858260208110610a3d57fe5b1a60f81b90506001600160f81b0319811615610a7e5780848481518110610a6057fe5b60200101906001600160f81b031916908160001a9053506001909201915b50600101610a26565b506000816001600160401b0381118015610aa057600080fd5b506040519080825280601f01601f191660200182016040528015610acb576020820181803683370190505b50905060005b82811015610b1b57838181518110610ae557fe5b602001015160f81c60f81b828281518110610afc57fe5b60200101906001600160f81b031916908160001a905350600101610ad1565b50949350505050565b606060028206158015610b375750600082115b8015610b44575060288211155b610b95576040805162461bcd60e51b815260206004820152601e60248201527f41646472657373537472696e675574696c3a20494e56414c49445f4c454e0000604482015290519081900360640190fd5b6000826001600160401b0381118015610bad57600080fd5b506040519080825280601f01601f191660200182016040528015610bd8576020820181803683370190505b5090506001600160a01b03841660005b60028504811015610c7c57600860138290030282901c600f600482901c1660f082168203610c1582610c86565b868560020281518110610c2457fe5b60200101906001600160f81b031916908160001a905350610c4481610c86565b868560020260010181518110610c5657fe5b60200101906001600160f81b031916908160001a9053505060019092019150610be89050565b5090949350505050565b6000600a8260ff161015610ca157506030810160f81b6107c5565b506037810160f81b6107c5565b80516107c5816111b8565b8051600281900b81146107c557600080fd5b80516001600160801b03811681146107c557600080fd5b805161ffff811681146107c557600080fd5b805162ffffff811681146107c557600080fd5b805160ff811681146107c557600080fd5b600060208284031215610d29578081fd5b8151610d34816111b8565b9392505050565b600080600060608486031215610d4f578182fd5b8335610d5a816111b8565b92506020840135610d6a816111b8565b929592945050506040919091013590565b60008060408385031215610d8d578182fd5b8235610d98816111b8565b946020939093013593505050565b600060208284031215610db7578081fd5b610d3482610cb9565b600060208284031215610dd1578081fd5b81516001600160401b0380821115610de7578283fd5b818401915084601f830112610dfa578283fd5b815181811115610e0657fe5b604051601f8201601f191681016020018381118282101715610e2457fe5b604052818152838201602001871015610e3b578485fd5b610e4c826020830160208701611188565b9695505050505050565b600080600080600080600060e0888a031215610e70578283fd5b8751610e7b816111b8565b9650610e8960208901610cb9565b9550610e9760408901610ce2565b9450610ea560608901610ce2565b9350610eb360808901610ce2565b9250610ec160a08901610d07565b915060c08801518015158114610ed5578182fd5b8091505092959891949750929550565b600060208284031215610ef6578081fd5b610d3482610d07565b6000806000806000806000806000806000806101808d8f031215610f21578485fd5b8c516001600160601b0381168114610f37578586fd5b9b50610f4560208e01610cae565b9a50610f5360408e01610cae565b9950610f6160608e01610cae565b9850610f6f60808e01610cf4565b9750610f7d60a08e01610cb9565b9650610f8b60c08e01610cb9565b9550610f9960e08e01610ccb565b94506101008d015193506101208d01519250610fb86101408e01610ccb565b9150610fc76101608e01610ccb565b90509295989b509295989b509295989b565b6001600160a01b03169052565b15159052565b60020b9052565b6000815180845261100b816020860160208601611188565b601f01601f19169290920160200192915050565b62ffffff169052565b60ff169052565b6001600160a01b0391909116815260200190565b901515815260200190565b90815260200190565b600060208252610d346020830184610ff3565b6000602082528251602083015260208301516110896040840182610fd9565b50604083015161109c6060840182610fd9565b5060608301516101c08060808501526110b96101e0850183610ff3565b91506080850151601f198584030160a08601526110d68382610ff3565b92505060a08501516110eb60c0860182611028565b5060c08501516110fe60e0860182611028565b5060e085015161010061111381870183610fe6565b860151905061012061112786820183610fec565b860151905061014061113b86820183610fec565b860151905061016061114f86820183610fec565b860151905061018061116386820183610fec565b86015190506101a06111778682018361101f565b8601519050610c7c85830182610fd9565b60005b838110156111a357818101518382015260200161118b565b838111156111b2576000848401525b50505050565b6001600160a01b03811681146111cd57600080fd5b5056fea264697066735822122096f3d3c5150b9d678fab285fd63cde22d3158b6419c3caad06579b0ec1bdefd964736f6c63430007060033",
  "linkReferences": {
    "contracts/libraries/NFTDescriptor.sol": {
      "NFTDescriptor": [
        {
          "length": 20,
          "start": 1205
        }
      ]
    }
  },
  "deployedLinkReferences": {
    "contracts/libraries/NFTDescriptor.sol": {
      "NFTDescriptor": [
        {
          "length": 20,
          "start": 1058
        }
      ]
    }
  }
}