{
  "_format": "hh-sol-artifact-1",
  "contractName": "NFTDescriptor",
  "sourceName": "contracts/libraries/NFTDescriptor.sol",
  "abi": [
    {
      "inputs": [
        {
          "components": [
            {
              "internalType": "uint256",
              "name": "tokenId",
              "type": "uint256"
            },
            {
              "internalType": "address",
              "name": "quoteTokenAddress",
              "type": "address"
            },
            {
              "internalType": "address",
              "name": "baseTokenAddress",
              "type": "address"
            },
            {
              "internalType": "string",
              "name": "quoteTokenSymbol",
              "type": "string"
            },
            {
              "internalType": "string",
              "name": "baseTokenSymbol",
              "type": "string"
            },
            {
              "internalType": "uint8",
              "name": "quoteTokenDecimals",
              "type": "uint8"
            },
            {
              "internalType": "uint8",
              "name": "baseTokenDecimals",
              "type": "uint8"
            },
            {
              "internalType": "bool",
              "name": "flipRatio",
              "type": "bool"
            },
            {
              "internalType": "int24",
              "name": "tickLower",
              "type": "int24"
            },
            {
              "internalType": "int24",
              "name": "tickUpper",
              "type": "int24"
            },
            {
              "internalType": "int24",
              "name": "tickCurrent",
              "type": "int24"
            },
            {
              "internalType": "int24",
              "name": "tickSpacing",
              "type": "int24"
            },
            {
              "internalType": "uint24",
              "name": "fee",
              "type": "uint24"
            },
            {
              "internalType": "address",
              "name": "poolAddress",
              "type": "address"
            }
          ],
          "internalType": "struct NFTDescriptor.ConstructTokenURIParams",
          "name": "params",
          "type": "tuple"
        }
      ],
      "name": "constructTokenURI",
      "outputs": [
        {
          "internalType": "string",
          "name": "",
          "type": "string"
        }
      ],
      "stateMutability": "pure",
      "type": "function"
    }
  ],
  "bytecode": "0x615af7610026600b82828239805160001a60731461001957fe5b30600052607381538281f3fe73000000000000000000000000000000000000000030146080604052600436106100355760003560e01c8063c49917d71461003a575b600080fd5b61004d610048366004613b0b565b610063565b60405161005a919061413c565b60405180910390f35b6060600061007e83610079856101800151610170565b6103b6565b905060006100b26100928560600151610471565b61009f8660800151610471565b6100ad876101a001516105dc565b6105f2565b905060006101006100c68660000151610624565b6100d38760800151610471565b6100e088602001516105dc565b6100ed89604001516105dc565b6100fb8a6101800151610170565b6106fe565b9050600061011561011087610734565b61096f565b9050610145848484846040516020016101319493929190613e82565b60405160208183030381529060405261096f565b60405160200161015591906140f7565b6040516020818303038152906040529450505050505b919050565b606062ffffff821661019b5750604080518082019091526002815261302560f01b602082015261016b565b816000805b62ffffff8316156101eb5760ff8116156101bc576001016101d5565b600a62ffffff84160662ffffff166000146101d5576001015b600190910190600a62ffffff84160492506101a0565b6101f3613a06565b6000600584106102e8576000600461020e8660ff8716610aba565b101561021b57600161021e565b60005b60ff90811691506102329085166001610aba565b61023d866005610aba565b106102695761026461025360ff86166001610aba565b61025e876005610aba565b90610aba565b61026c565b60005b60ff85166080850181905290925061028b9060019061025e9085610b17565b60ff90811660a085015260808401516102b29183916102ac91166001610aba565b90610b17565b60ff90811660408501526102da9082906102ac906102d39088166001610b17565b8590610b17565b60ff16602084015250610358565b6102f3600585610aba565b6002608084018190529091506103119060019061025e908490610b17565b60ff90811660a08401526103339061032c9085166002610b17565b8290610b17565b60ff1660208301819052610348906002610aba565b60ff166040830152600160c08301525b6103776103688560ff8616610aba565b62ffffff891690600a0a610b6f565b8252600160e08301526004841161038f57600061039a565b61039a846004610aba565b60ff1660608301526103ab82610bd3565b979650505050505050565b6060816103c68460600151610471565b6103d38560800151610471565b61040c8660e00151156103eb578661012001516103f2565b8661010001515b8761016001518860c001518960a001518a60e00151610de2565b6104458760e00151156104245787610100015161042b565b8761012001515b8861016001518960c001518a60a001518b60e00151610de2565b604051602001610459959493929190613f5d565b60405160208183030381529060405290505b92915050565b6060816000805b82518160ff1610156104bd57828160ff168151811061049357fe5b6020910101516001600160f81b031916601160f91b14156104b5576001909101905b600101610478565b5060ff8116156105d45760008160ff168351016001600160401b03811180156104e557600080fd5b506040519080825280601f01601f191660200182016040528015610510576020820181803683370190505b5090506000805b84518160ff1610156105c757848160ff168151811061053257fe5b6020910101516001600160f81b031916601160f91b141561057c57601760fa1b83838060010194508151811061056457fe5b60200101906001600160f81b031916908160001a9053505b848160ff168151811061058b57fe5b602001015160f81c60f81b8383806001019450815181106105a857fe5b60200101906001600160f81b031916908160001a905350600101610517565b508194505050505061016b565b509192915050565b606061046b6001600160a01b0383166014610ef7565b60608383838660405160200161060b9493929190613d62565b60405160208183030381529060405290505b9392505050565b60608161064957506040805180820190915260018152600360fc1b602082015261016b565b8160005b811561066157600101600a8204915061064d565b6000816001600160401b038111801561067957600080fd5b506040519080825280601f01601f1916602001820160405280156106a4576020820181803683370190505b50859350905060001982015b83156106f557600a840660300160f81b828280600190039350815181106106d357fe5b60200101906001600160f81b031916908160001a905350600a840493506106b0565b50949350505050565b60608385848489604051602001610719959493929190614014565b60405160208183030381529060405290505b95945050505050565b60606000604051806102a0016040528061075185602001516105dc565b815260200161076385604001516105dc565b8152602001846101a001516001600160a01b03168152602001846060015181526020018460800151815260200161079e856101800151610170565b815260200184610100015160020b815260200184610120015160020b815260200184610160015160020b81526020016107e7856101000151866101200151876101400151611055565b60000b81526020018460000151815260200161081185602001516001600160a01b0316608861108c565b815260200161082e85604001516001600160a01b0316608861108c565b815260200161084b85602001516001600160a01b0316600061108c565b815260200161086885604001516001600160a01b0316600061108c565b815260200161089b61088d86602001516001600160a01b03166010886000015161109b565b600060ff60106101126110bb565b81526020016108ce6108c086604001516001600160a01b03166010886000015161109b565b600060ff60646101e46110bb565b81526020016108f361088d86602001516001600160a01b03166020886000015161109b565b81526020016109186108c086604001516001600160a01b03166020886000015161109b565b815260200161093d61088d86602001516001600160a01b03166030886000015161109b565b81526020016109626108c086604001516001600160a01b03166030886000015161109b565b9052905061061d81611103565b6060815160001415610990575060408051602081019091526000815261016b565b6000604051806060016040528060408152602001614d5c604091399050600060038451600201816109bd57fe5b0460040290506000816020016001600160401b03811180156109de57600080fd5b506040519080825280601f01601f191660200182016040528015610a09576020820181803683370190505b509050818152600183018586518101602084015b81831015610a75576003830192508251603f8160121c168501518253600182019150603f81600c1c168501518253600182019150603f8160061c168501518253600182019150603f8116850151825350600101610a1d565b600389510660018114610a8f5760028114610aa057610aac565b613d3d60f01b600119830152610aac565b603d60f81b6000198301525b509398975050505050505050565b600082821115610b11576040805162461bcd60e51b815260206004820152601e60248201527f536166654d6174683a207375627472616374696f6e206f766572666c6f770000604482015290519081900360640190fd5b50900390565b60008282018381101561061d576040805162461bcd60e51b815260206004820152601b60248201527a536166654d6174683a206164646974696f6e206f766572666c6f7760281b604482015290519081900360640190fd5b6000808211610bc2576040805162461bcd60e51b815260206004820152601a602482015279536166654d6174683a206469766973696f6e206279207a65726f60301b604482015290519081900360640190fd5b818381610bcb57fe5b049392505050565b60606000826020015160ff166001600160401b0381118015610bf457600080fd5b506040519080825280601f01601f191660200182016040528015610c1f576020820181803683370190505b5090508260e0015115610c5957602560f81b81600183510381518110610c4157fe5b60200101906001600160f81b031916908160001a9053505b8260c0015115610cb657600360fc1b81600081518110610c7557fe5b60200101906001600160f81b031916908160001a905350601760f91b81600181518110610c9e57fe5b60200101906001600160f81b031916908160001a9053505b608083015160ff165b60a0840151610cd29060ff166001610b17565b811015610d0957603060f81b828281518110610cea57fe5b60200101906001600160f81b031916908160001a905350600101610cbf565b505b82511561046b576000836060015160ff16118015610d365750826060015160ff16836040015160ff16145b15610d795760408301805160ff600019820181169092528251601760f91b92849216908110610d6157fe5b60200101906001600160f81b031916908160001a9053505b8251610d8b90603090600a9006610b17565b60f81b818460400180518091906001900360ff1660ff1681525060ff1681518110610db257fe5b60200101906001600160f81b031916908160001a905350600a8360000181815181610dd957fe5b04905250610d0b565b606084600281900b620d89e71981610df657fe5b050260020b8660020b1415610e50578115610e2c576040518060400160405280600381526020016209a82b60eb1b815250610e49565b6040518060400160405280600381526020016226a4a760e91b8152505b905061072b565b84600281900b620d89e881610e6157fe5b050260020b8660020b1415610eb7578115610e97576040518060400160405280600381526020016226a4a760e91b815250610e49565b5060408051808201909152600381526209a82b60eb1b602082015261072b565b6000610ec28761137b565b90508215610ee457610ee1600160c01b6001600160a01b038316610b6f565b90505b610eef8186866116a2565b91505061072b565b60606000826002026002016001600160401b0381118015610f1757600080fd5b506040519080825280601f01601f191660200182016040528015610f42576020820181803683370190505b509050600360fc1b81600081518110610f5757fe5b60200101906001600160f81b031916908160001a905350600f60fb1b81600181518110610f8057fe5b60200101906001600160f81b031916908160001a905350600160028402015b6001811115611001576f181899199a1a9b1b9c1cb0b131b232b360811b85600f1660108110610fca57fe5b1a60f81b828281518110610fda57fe5b60200101906001600160f81b031916908160001a90535060049490941c9360001901610f9f565b50831561061d576040805162461bcd60e51b815260206004820181905260248201527f537472696e67733a20686578206c656e67746820696e73756666696369656e74604482015290519081900360640190fd5b60008360020b8260020b121561106e575060001961061d565b8260020b8260020b13156110845750600161061d565b50600061061d565b606061061d83831c600361185f565b600060ff826110aa8686611918565b02816110b257fe5b06949350505050565b60606110f96110f4846102ac6110d1888a610aba565b6110ee6110de888a610aba565b6110e88d8d610aba565b9061191f565b90610b6f565b610624565b9695505050505050565b606061110e82611978565b61112a8360000151846020015185606001518660800151611fd7565b611141846060015185608001518660a00151612302565b61115f8560c001518660e00151876101000151886101200151612452565b61117f611170876101400151610624565b8760c001518860e00151612735565b6111928761014001518860400151612b4d565b6040516020018087805190602001908083835b602083106111c45780518252601f1990920191602091820191016111a5565b51815160209384036101000a600019018019909216911617905289519190930192890191508083835b6020831061120c5780518252601f1990920191602091820191016111ed565b51815160209384036101000a600019018019909216911617905288519190930192880191508083835b602083106112545780518252601f199092019160209182019101611235565b51815160209384036101000a600019018019909216911617905287519190930192870191508083835b6020831061129c5780518252601f19909201916020918201910161127d565b51815160209384036101000a600019018019909216911617905286519190930192860191508083835b602083106112e45780518252601f1990920191602091820191016112c5565b51815160209384036101000a600019018019909216911617905285519190930192850191508083835b6020831061132c5780518252601f19909201916020918201910161130d565b5181516020939093036101000a6000190180199091169216919091179052651e17b9bb339f60d11b92019182525060408051808303601919018152600690920190529998505050505050505050565b60008060008360020b12611392578260020b61139a565b8260020b6000035b9050620d89e88111156113d8576040805162461bcd60e51b81526020600482015260016024820152601560fa1b604482015290519081900360640190fd5b6000600182166113ec57600160801b6113fe565b6ffffcb933bd6fad37aa2d162d1a5940015b6001600160881b031690506002821615611428576ffff97272373d413259a46990580e213a0260801c5b6004821615611447576ffff2e50f5f656932ef12357cf3c7fdcc0260801c5b6008821615611466576fffe5caca7e10e4e61c3624eaa0941cd00260801c5b6010821615611485576fffcb9843d60f6159c9db58835c9266440260801c5b60208216156114a4576fff973b41fa98c081472e6896dfb254c00260801c5b60408216156114c3576fff2ea16466c96a3843ec78b326b528610260801c5b60808216156114e2576ffe5dee046a99a2a811c461f1969c30530260801c5b610100821615611502576ffcbe86c7900a88aedcffc83b479aa3a40260801c5b610200821615611522576ff987a7253ac413176f2b074cf7815e540260801c5b610400821615611542576ff3392b0822b70005940c7a398e4b70f30260801c5b610800821615611562576fe7159475a2c29b7443b29c7fa6e889d90260801c5b611000821615611582576fd097f3bdfd2022b8845ad8f792aa58250260801c5b6120008216156115a2576fa9f746462d870fdf8a65dc1f90e061e50260801c5b6140008216156115c2576f70d869a156d2a1b890bb3df62baf32f70260801c5b6180008216156115e2576f31be135f97d08fd981231505542fcfa60260801c5b62010000821615611603576f09aa508b5b7a84e1c677de54f3e99bc90260801c5b62020000821615611623576e5d6af8dedb81196699c329225ee6040260801c5b62040000821615611642576d2216e584f5fa1ea926041bedfe980260801c5b6208000082161561165f576b048a170391f7dc42444e8fa20260801c5b60008460020b131561167a57806000198161167657fe5b0490505b600160201b81061561168d576001611690565b60005b60ff16602082901c0192505050919050565b606060006116b1858585612bc5565b905060006116c48283600160401b612cc7565b9050600160601b821080156116f9576116f2826c47bf19673df52e37f2410011d1602c1b600160801b612cc7565b915061170e565b61170b82620186a0600160801b612cc7565b91505b8160005b811561172657600101600a82049150611712565b600019016000806117378684612d76565b915091508015611748576001909201915b611750613a06565b85156117bd5761176f611767602b60ff8716610aba565b600790610b17565b60ff908116602083015260026080830152611795906001906102ac90602b908816610aba565b60ff90811660a083015260208201516117b091166001610aba565b60ff166040820152611834565b60098460ff1610611806576117d660ff85166004610aba565b60ff1660208201819052600560808301526117f2906001610aba565b60ff1660a082015260046040820152611834565b6006602082015260056040820181905261182b906001906102ac9060ff881690610aba565b60ff1660608201525b82815285151560c0820152600060e082015261184f81610bd3565b9c9b505050505050505050505050565b60606000826002026001600160401b038111801561187c57600080fd5b506040519080825280601f01601f1916602001820160405280156118a7576020820181803683370190505b5080519091505b8015611910576f181899199a1a9b1b9c1cb0b131b232b360811b85600f16601081106118d657fe5b1a60f81b8260018303815181106118e957fe5b60200101906001600160f81b031916908160001a90535060049490941c93600019016118ae565b509392505050565b1c60ff1690565b60008261192e5750600061046b565b8282028284828161193b57fe5b041461061d5760405162461bcd60e51b8152600401808060200182810382526021815260200180614f7b6021913960400191505060405180910390fd5b6060611a0d8261016001516040516020018080614b356081913960810182805190602001908083835b602083106119c05780518252601f1990920191602091820191016119a1565b6001836020036101000a038019825116818451168082178552505050505050905001806813979f1e17b9bb339f60b91b81525060090191505060405160208183030381529060405261096f565b611b6f836101e0015184610200015185610180015160405160200180806146726063913960630184805190602001908083835b60208310611a5f5780518252601f199092019160209182019101611a40565b51815160209384036101000a600019018019909216911617905265272063793d2760d01b919093019081528551600690910192860191508083835b60208310611ab95780518252601f199092019160209182019101611a9a565b51815160209384036101000a6000190180199092169116179052722720723d273132307078272066696c6c3d272360681b919093019081528451601390910192850191508083835b60208310611b205780518252601f199092019160209182019101611b01565b6001836020036101000a038019825116818451168082178552505050505050905001806813979f1e17b9bb339f60b91b815250600901935050505060405160208183030381529060405261096f565b611bc0846102200151856102400151866101a00151604051602001808061467260639139606301848051906020019080838360208310611a5f5780518252601f199092019160209182019101611a40565b611cd5856102600151866102800151876101c0015160405160200180806146726063913960630184805190602001908083835b60208310611c125780518252601f199092019160209182019101611bf3565b51815160209384036101000a600019018019909216911617905265272063793d2760d01b919093019081528551600690910192860191508083835b60208310611c6c5780518252601f199092019160209182019101611c4d565b51815160001960209485036101000a01908116901991909116179052722720723d273130307078272066696c6c3d272360681b939091019283528451601390930192908501915080838360208310611b205780518252601f199092019160209182019101611b01565b6101608601516040516020018060566143ed8239605601602c614d9c8239651e3232b3399f60d11b602c820152603201604b614aea8239604b0186805190602001908083835b60208310611d3a5780518252601f199092019160209182019101611d1b565b6001836020036101000a03801982511681845116808217855250505050505090500180615622603e9139603e0185805190602001908083835b60208310611d925780518252601f199092019160209182019101611d73565b6001836020036101000a03801982511681845116808217855250505050505090500180614bb6603e9139603e0184805190602001908083835b60208310611dea5780518252601f199092019160209182019101611dcb565b5181516020939093036101000a6000190180199091169216919091179052631110179f60e11b920191825250600401603b6142e58239603b0183805190602001908083835b60208310611e4e5780518252601f199092019160209182019101611e2f565b6001836020036101000a0380198251168184511680821785525050505050509050018061473260999139609901607f6151d38239607f01608861559a823960880160416147cb8239604101605d61575a8239605d01607261527f8239607201604961424e823960490160be614a2c823960be0160716144fe823960710160756151168239607501606661480c823960660160a4614dc8823960a401608561566082397f3c6720636c69702d706174683d2275726c2823636f726e65727329223e00000060858201526b1e3932b1ba103334b6361e9160a11b60a2820152825160ae9091019060208401908083835b60208310611f5b5780518252601f199092019160209182019101611f3c565b6001836020036101000a0380198251168184511680821785525050505050509050018061487260319139603101604e6142978239604e01605d6146d58239605d016041614d1b82396041016052614bf4823960520160756156e58239607501955050505050506040516020818303038152906040529050919050565b60608382858488878a89604051602001808061583d60259139602501607d6149af8239607d0189805190602001908083835b602083106120285780518252601f199092019160209182019101612009565b51815160209384036101000a600019018019909216911617905264010714051160dd1b919093019081528a516005909101928b0191508083835b602083106120815780518252601f199092019160209182019101612062565b6001836020036101000a038019825116818451168082178552505050505050905001806148a36079913960790160866157b7823960860187805190602001908083835b602083106120e35780518252601f1990920191602091820191016120c4565b51815160209384036101000a600019018019909216911617905264010714051160dd1b919093019081528851600590910192890191508083835b6020831061213c5780518252601f19909201916020918201910161211d565b6001836020036101000a0380198251168184511680821785525050505050509050018061447960859139608501607b6154088239607b0185805190602001908083835b6020831061219e5780518252601f19909201916020918201910161217f565b51815160209384036101000a600019018019909216911617905264010714051160dd1b919093019081528651600590910192870191508083835b602083106121f75780518252601f1990920191602091820191016121d8565b6001836020036101000a038019825116818451168082178552505050505050905001806145c3605d9139605d0160a3615073823960a30183805190602001908083835b602083106122595780518252601f19909201916020918201910161223a565b51815160209384036101000a600019018019909216911617905264010714051160dd1b919093019081528451600590910192850191508083835b602083106122b25780518252601f199092019160209182019101612293565b6001836020036101000a038019825116818451168082178552505050505050905001806141c3608b9139608b01985050505050505050506040516020818303038152906040529050949350505050565b6060838383604051602001808061432060cd913960cd0184805190602001908083835b602083106123445780518252601f199092019160209182019101612325565b6001836020036101000a03801982511681845116808217855250505050505090500180602f60f81b81525060010183805190602001908083835b6020831061239d5780518252601f19909201916020918201910161237e565b6001836020036101000a038019825116818451168082178552505050505050905001806159e66077913960770182805190602001908083835b602083106123f55780518252601f1990920191602091820191016123d6565b5181516020939093036101000a60001901801990911692169190911790526a1e17ba32bc3a1f1e17b39f60a91b920191825250600b0160736158868239607301935050505060405160208183030381529060405290509392505050565b606060008260000b6001146124b9578260000b600019146124905760405180604001604052806005815260200164236e6f6e6560d81b8152506124b4565b6040518060400160405280600a81526020016911b330b23296b237bbb760b11b8152505b6124db565b60405180604001604052806008815260200167023666164652d75760c41b8152505b905060006124ea878787612de7565b9050818183836124f988613015565b60405160200180806c078ce40dac2e6d67a44eae4d85609b1b815250600d0186805190602001908083835b602083106125435780518252601f199092019160209182019101612524565b5181516020939093036101000a600019018019909116921691909117905261149160f11b9201918252506002016077614e6c823960770185805190602001908083835b602083106125a55780518252601f199092019160209182019101612586565b6001836020036101000a0380198251168184511680821785525050505050509050018061456f6054913960540180700785ece7c78ce40dac2e6d67a44eae4d85607b1b81525060110184805190602001908083835b602083106126195780518252601f1990920191602091820191016125fa565b5181516020939093036101000a600019018019909116921691909117905261149160f11b9201918252506002016029614ee382396029016045614f36823960450180681e3830ba3410321e9160b91b81525060090183805190602001908083835b602083106126995780518252601f19909201916020918201910161267a565b6001836020036101000a0380198251168184511680821785525050505050509050018061518b6048913960480182805190602001908083835b602083106126f15780518252601f1990920191602091820191016126d2565b6001836020036101000a0380198251168184511680821785525050505050509050019550505050505060405160208183030381529060405292505050949350505050565b606060006127428461347c565b9050600061274f8461347c565b865183518251929350600490910191600a91820191016000806127728a8a613586565b9150915061278585600401600702610624565b8b61279586600401600702610624565b896127a587600401600702610624565b8a87876040516020018080615252602d9139602d01806c1e3932b1ba103bb4b23a341e9160991b815250600d0189805190602001908083835b602083106127fd5780518252601f1990920191602091820191016127de565b6001836020036101000a03801982511681845116808217855250505050505090500180614c46603d9139603d01608d6158f98239608d0188805190602001908083835b6020831061285f5780518252601f199092019160209182019101612840565b5181516020939093036101000a60001901801990911692169190911790526a1e17ba32bc3a1f1e17b39f60a91b920191825250600b01602d615a958239602d01806c1e3932b1ba103bb4b23a341e9160991b815250600d0187805190602001908083835b602083106128e25780518252601f1990920191602091820191016128c3565b6001836020036101000a03801982511681845116808217855250505050505090500180614c46603d9139603d01609361491c823960930186805190602001908083835b602083106129445780518252601f199092019160209182019101612925565b5181516020939093036101000a60001901801990911692169190911790526a1e17ba32bc3a1f1e17b39f60a91b920191825250600b01602d6146208239602d01806c1e3932b1ba103bb4b23a341e9160991b815250600d0185805190602001908083835b602083106129c75780518252601f1990920191602091820191016129a8565b6001836020036101000a03801982511681845116808217855250505050505090500180614c46603d9139603d016093615483823960930184805190602001908083835b60208310612a295780518252601f199092019160209182019101612a0a565b6001836020036101000a03801982511681845116808217855250505050505090500180615a5d6038913960380160606159868239606001606461500f8239606401602561464d823960250183805190602001908083835b60208310612a9f5780518252601f199092019160209182019101612a80565b51815160209384036101000a6000190180199092169116179052630383c16160e51b919093019081528451600490910192850191508083835b60208310612af75780518252601f199092019160209182019101612ad8565b6001836020036101000a0380198251168184511680821785525050505050509050018061444360369139603601985050505050505050506040516020818303038152906040529750505050505050509392505050565b6060612b598383613892565b15612baf5760405160200180608d61537b8239608d016073614f9c82396073016071614caa8239607101608a6152f18239608a01608461551682396084019050604051602081830303815290604052905061046b565b5060408051602081019091526000815292915050565b600080612be0612bdb60ff8681169086166138f0565b613955565b9050600081118015612bf3575060128111155b15612cb4578260ff168460ff161115612c5d57612c27612c14826002610b6f565b6001600160a01b03871690600a0a61191f565b91506002810660011415612c5857612c55827003298b075b4b6a5240945790619b37fd4a600160801b612cc7565b91505b612caf565b612c7e612c6b826002610b6f565b6001600160a01b03871690600a0a610b6f565b91506002810660011415612caf57612cac82600160801b7003298b075b4b6a5240945790619b37fd4a612cc7565b91505b611910565b50506001600160a01b0390921692915050565b6000808060001985870986860292508281109083900303905080612cfd5760008411612cf257600080fd5b50829004905061061d565b808411612d0957600080fd5b6000848688096000868103871696879004966002600389028118808a02820302808a02820302808a02820302808a02820302808a02820302808a02909103029181900381900460010186841190950394909402919094039290920491909117919091029150509392505050565b600080600060058460ff161115612d9e57612d9b8560ff600419870116600a0a610b6f565b94505b60006004600a8706119050612db486600a610b6f565b95508015612dc3578560010195505b85620186a01415612dd957600a86049550600191505b5084925090505b9250929050565b606060008260020b85850360020b81612dfc57fe5b05905060048160020b13612e44576040518060400160405280601a8152602001794d3120314334312034312031303520313035203134352031343560301b8152509150611910565b60088160020b13612e8857604051806040016040528060198152602001784d31203143333320343920393720313133203134352031343560381b8152509150611910565b60108160020b13612ecc57604051806040016040528060198152602001784d31203143333320353720383920313133203134352031343560381b8152509150611910565b60208160020b13612f1057604051806040016040528060198152602001784d31203143323520363520383120313231203134352031343560381b8152509150611910565b60408160020b13612f5457604051806040016040528060198152602001784d31203143313720373320373320313239203134352031343560381b8152509150611910565b60808160020b13612f9757604051806040016040528060188152602001774d312031433920383120363520313337203134352031343560401b8152509150611910565b6101008160020b13612fdd576040518060400160405280601a8152602001794d31203143312038392035372e3520313435203134352031343560301b8152509150611910565b50506040805180820190915260188152774d312031433120393720343920313435203134352031343560401b60208201529392505050565b6040805180820182526002815261373360f01b6020808301919091528251808401845260038082526203139360ec1b82840152845180860186528181526232313760e81b818501528551808701909652908552620ccccd60ea1b928501929092526060939091906001600087900b148061309357508560000b600019145b1561328a578560000b600019146130aa57816130ac565b835b8660000b600019146130be57816130c0565b835b8760000b600019146130d257836130d4565b855b8860000b600019146130e657836130e8565b855b60405160200180806b1e31b4b931b6329031bc1e9160a11b815250600c0185805190602001908083835b602083106131315780518252601f199092019160209182019101613112565b51815160209384036101000a600019018019909216911617905267383c111031bc9e9160c11b919093019081528651600890910192870191508083835b6020831061318d5780518252601f19909201916020918201910161316e565b6001836020036101000a03801982511681845116808217855250505050505090500180614c836027913960270183805190602001908083835b602083106131e55780518252601f1990920191602091820191016131c6565b51815160209384036101000a600019018019909216911617905267383c111031bc9e9160c11b919093019081528451600890910192850191508083835b602083106132415780518252601f199092019160209182019101613222565b6001836020036101000a03801982511681845116808217855250505050505090500180614f0c602a9139602a019450505050506040516020818303038152906040529450613473565b8383838360405160200180806b1e31b4b931b6329031bc1e9160a11b815250600c0185805190602001908083835b602083106132d75780518252601f1990920191602091820191016132b8565b51815160209384036101000a600019018019909216911617905267383c111031bc9e9160c11b919093019081528651600890910192870191508083835b602083106133335780518252601f199092019160209182019101613314565b51815160209384036101000a60001901801990921691161790527a383c1110391e911a383c11103334b6361e913bb434ba329110179f60291b919093019081526b1e31b4b931b6329031bc1e9160a11b601b8201528551602790910192860191508083835b602083106133b75780518252601f199092019160209182019101613398565b51815160209384036101000a600019018019909216911617905267383c111031bc9e9160c11b919093019081528451600890910192850191508083835b602083106134135780518252601f1990920191602091820191016133f4565b6001836020036101000a038019825116818451168082178552505050505050905001807a383c1110391e911a383c11103334b6361e913bb434ba329110179f60291b815250601b0194505050505060405160208183030381529060405294505b50505050919050565b6060600060405180602001604052806000815250905060008360020b12156134c25782600019029250604051806040016040528060018152602001602d60f81b81525090505b806134cf8460020b610624565b6040516020018083805190602001908083835b602083106135015780518252601f1990920191602091820191016134e2565b51815160209384036101000a600019018019909216911617905285519190930192850191508083835b602083106135495780518252601f19909201916020918201910161352a565b6001836020036101000a03801982511681845116808217855250505050505090500192505050604051602081830303815290604052915050919050565b60608060006002858501810b0590506201e847198160020b12156135e257604051806040016040528060018152602001600760fb1b815250604051806040016040528060018152602001603760f81b8152509250925050612de0565b620124f7198160020b121561363257604051806040016040528060018152602001600760fb1b8152506040518060400160405280600481526020016331302e3560e01b8152509250925050612de0565b6161a7198160020b121561368257604051806040016040528060018152602001600760fb1b8152506040518060400160405280600581526020016431342e323560d81b8152509250925050612de0565b611387198160020b12156136d05760405180604001604052806002815260200161031360f41b81525060405180604001604052806002815260200161062760f31b8152509250925050612de0565b60008160020b121561371c5760405180604001604052806002815260200161313160f01b81525060405180604001604052806002815260200161323160f01b8152509250925050612de0565b6113888160020b12156137695760405180604001604052806002815260200161313360f01b81525060405180604001604052806002815260200161323360f01b8152509250925050612de0565b6161a88160020b12156137b65760405180604001604052806002815260200161313560f01b81525060405180604001604052806002815260200161323560f01b8152509250925050612de0565b620124f88160020b12156138045760405180604001604052806002815260200161062760f31b81525060405180604001604052806002815260200161191b60f11b8152509250925050612de0565b6201e8488160020b12156138525760405180604001604052806002815260200161323160f01b81525060405180604001604052806002815260200161323760f01b8152509250925050612de0565b604051806040016040528060028152602001610c8d60f21b81525060405180604001604052806002815260200161323760f01b8152509250925050612de0565b6040805160208082018590526001600160601b0319606085901b168284015282516034818403018152605490920190925280519101206000906138d48461396c565b60020260010160ff16600019816138e757fe5b04119392505050565b60008183038183128015906139055750838113155b8061391a575060008312801561391a57508381135b61061d5760405162461bcd60e51b81526004018080602001828103825260248152602001806158626024913960400191505060405180910390fd5b600080821215613968578160000361046b565b5090565b600080821161397a57600080fd5b600160801b821061398d57608091821c91015b600160401b82106139a057604091821c91015b600160201b82106139b357602091821c91015b6201000082106139c557601091821c91015b61010082106139d657600891821c91015b601082106139e657600491821c91015b600482106139f657600291821c91015b6002821061016b57600101919050565b6040805161010081018252600080825260208201819052918101829052606081018290526080810182905260a0810182905260c0810182905260e081019190915290565b80356001600160a01b038116811461016b57600080fd5b8035801515811461016b57600080fd5b8035600281900b811461016b57600080fd5b600082601f830112613a93578081fd5b81356001600160401b03811115613aa657fe5b613ab9601f8201601f191660200161416f565b818152846020838601011115613acd578283fd5b816020850160208301379081016020019190915292915050565b803562ffffff8116811461016b57600080fd5b803560ff8116811461016b57600080fd5b600060208284031215613b1c578081fd5b81356001600160401b0380821115613b32578283fd5b81840191506101c0808387031215613b48578384fd5b613b518161416f565b905082358152613b6360208401613a4a565b6020820152613b7460408401613a4a565b6040820152606083013582811115613b8a578485fd5b613b9687828601613a83565b606083015250608083013582811115613bad578485fd5b613bb987828601613a83565b608083015250613bcb60a08401613afa565b60a0820152613bdc60c08401613afa565b60c0820152613bed60e08401613a61565b60e08201526101009150613c02828401613a71565b828201526101209150613c16828401613a71565b828201526101409150613c2a828401613a71565b828201526101609150613c3e828401613a71565b828201526101809150613c52828401613ae7565b828201526101a09150613c66828401613a4a565b91810191909152949350505050565b60008151613c87818560208601614192565b9290920192915050565b7fe29aa0efb88f20444953434c41494d45523a204475652064696c6967656e636581527f20697320696d7065726174697665207768656e20617373657373696e6720746860208201527f6973204e46542e204d616b65207375726520746f6b656e20616464726573736560408201527f73206d617463682074686520657870656374656420746f6b656e732c2061732060608201527f746f6b656e2073796d626f6c73206d617920626520696d6974617465642e00006080820152609e0190565b632e372e3760e11b815260040190565b60007f54686973204e465420726570726573656e74732061206c69717569646974792082527603837b9b4ba34b7b71034b71030902d32b13930902b199604d1b60208301528551613dba816037850160208a01614192565b602d60f81b6037918401918201528551613ddb816038840160208a01614192565b660103837b7b617160cd1b603892909101918201527f546865206f776e6572206f662074686973204e46542063616e206d6f64696679603f820152791037b9103932b232b2b6903a3432903837b9b4ba34b7b7172e3760311b605f8201526f02e372837b7b61020b2323932b9b99d160851b60798201528451613e65816089840160208901614192565b612e3760f11b608992909101918201526103ab608b820185613c75565b683d913730b6b2911d1160b91b81528451600090613ea7816009850160208a01614192565b71111610113232b9b1b934b83a34b7b7111d1160711b6009918401918201528551613ed981601b840160208a01614192565b8551910190613eef81601b840160208901614192565b6c1116101134b6b0b3b2911d101160991b601b92909101918201527919185d184e9a5b5859d94bdcdd99cade1b5b0ed8985cd94d8d0b60321b60288201528351613f40816042840160208801614192565b61227d60f01b604292909101918201526044019695505050505050565b60006702d32b139309016960c51b82528651613f80816008850160208b01614192565b80830190506201016960ed1b8060088301528751613fa581600b850160208c01614192565b602f60f81b600b93909101928301528651613fc781600c850160208b01614192565b600c9201918201528451613fe281600f840160208901614192565b611e1f60f11b600f92909101918201528351614005816011840160208801614192565b01601101979650505050505050565b60006901020b2323932b9b99d160b51b808352875161403a81600a860160208c01614192565b612e3760f11b600a91850191820152875161405c81600c840160208c01614192565b01600c810191909152855190614079826016830160208a01614192565b8181019150506b02e372332b2902a34b2b91d160a51b601682015284516140a7816022840160208901614192565b6b02e372a37b5b2b71024a21d160a51b6022929091019182015283516140d481602e840160208801614192565b6140ea6140e5602e83850101613d52565b613c91565b9998505050505050505050565b60007f646174613a6170706c69636174696f6e2f6a736f6e3b6261736536342c0000008252825161412f81601d850160208701614192565b91909101601d0192915050565b600060208252825180602084015261415b816040850160208701614192565b601f01601f19169190910160400192915050565b6040518181016001600160401b038111828210171561418a57fe5b604052919050565b60005b838110156141ad578181015183820152602001614195565b838111156141bc576000848401525b5050505056fe203c616e696d6174652061646469746976653d2273756d22206174747269627574654e616d653d2273746172744f6666736574222066726f6d3d2230252220746f3d22313030252220626567696e3d22307322206475723d223330732220726570656174436f756e743d22696e646566696e69746522202f3e3c2f74657874506174683e3c2f746578743e3c73746f70206f66667365743d222e39222073746f702d636f6c6f723d227768697465222073746f702d6f7061636974793d223022202f3e3c2f6c696e6561724772616469656e743e3c72656374207374796c653d2266696c7465723a2075726c28236631292220783d223070782220793d22307078222077696474683d22323930707822206865696768743d22353030707822202f3e3c6665496d61676520726573756c743d2270332220786c696e6b3a687265663d22646174613a696d6167652f7376672b786d6c3b6261736536342c3c67206d61736b3d2275726c2823666164652d73796d626f6c29223e3c726563742066696c6c3d226e6f6e652220783d223070782220793d22307078222077696474683d22323930707822206865696768743d22323030707822202f3e203c7465787420793d22373070782220783d2233327078222066696c6c3d2277686974652220666f6e742d66616d696c793d2227436f7572696572204e6577272c206d6f6e6f73706163652220666f6e742d7765696768743d223230302220666f6e742d73697a653d2233367078223e3c7376672077696474683d2232393022206865696768743d22353030222076696577426f783d2230203020323930203530302220786d6c6e733d22687474703a2f2f7777772e77332e6f72672f323030302f7376672270782c2030707829222063783d22307078222063793d223070782220723d22347078222066696c6c3d227768697465222f3e3c2f673e203c616e696d6174652061646469746976653d2273756d22206174747269627574654e616d653d2273746172744f6666736574222066726f6d3d2230252220746f3d22313030252220626567696e3d22307322206475723d223330732220726570656174436f756e743d22696e646566696e69746522202f3e203c2f74657874506174683e3c6d61736b2069643d22666164652d757022206d61736b436f6e74656e74556e6974733d226f626a656374426f756e64696e67426f78223e3c726563742077696474683d223122206865696768743d2231222066696c6c3d2275726c2823677261642d75702922202f3e3c2f6d61736b3e22207374726f6b653d227267626128302c302c302c302e332922207374726f6b652d77696474683d2233327078222066696c6c3d226e6f6e6522207374726f6b652d6c696e656361703d22726f756e6422202f3e203c616e696d6174652061646469746976653d2273756d22206174747269627574654e616d653d2273746172744f6666736574222066726f6d3d2230252220746f3d22313030252220626567696e3d22307322206475723d2233307322203c67207374796c653d227472616e73666f726d3a7472616e736c61746528323970782c20343434707829223e3c636972636c65207374796c653d227472616e73666f726d3a7472616e736c6174653364283c7376672077696474683d2732393027206865696768743d27353030272076696577426f783d2730203020323930203530302720786d6c6e733d27687474703a2f2f7777772e77332e6f72672f323030302f737667273e3c636972636c652063783d27203c67207374796c653d2266696c7465723a75726c2823746f702d726567696f6e2d626c7572293b207472616e73666f726d3a7363616c6528312e35293b207472616e73666f726d2d6f726967696e3a63656e74657220746f703b223e22202f3e3c6665426c656e64206d6f64653d226f7665726c61792220696e3d2270302220696e323d22703122202f3e3c6665426c656e64206d6f64653d226578636c7573696f6e2220696e323d22703222202f3e3c6665426c656e64206d6f64653d226f7665726c61792220696e323d2270332220726573756c743d22626c656e644f757422202f3e3c6665476175737369616e426c7572203c706174682069643d226d696e696d61702220643d224d3233342034343443323334203435372e393439203234322e323120343633203235332034363322202f3e3c6d61736b2069643d226e6f6e6522206d61736b436f6e74656e74556e6974733d226f626a656374426f756e64696e67426f78223e3c726563742077696474683d223122206865696768743d2231222066696c6c3d22776869746522202f3e3c2f6d61736b3e2220783d223070782220793d22307078222077696474683d22323930707822206865696768743d22353030707822202f3e203c616e696d6174652061646469746976653d2273756d22206174747269627574654e616d653d2273746172744f6666736574222066726f6d3d2230252220746f3d22313030252220626567696e3d22307322206475723d223330732220726570656174436f756e743d22696e646566696e69746522202f3e3c7465787420783d22313270782220793d22313770782220666f6e742d66616d696c793d2227436f7572696572204e6577272c206d6f6e6f73706163652220666f6e742d73697a653d2231327078222066696c6c3d227768697465223e3c747370616e2066696c6c3d2272676261283235352c3235352c3235352c302e3629223e4d696e205469636b3a203c2f747370616e3e3c74657874506174682073746172744f66667365743d222d31303025222066696c6c3d2277686974652220666f6e742d66616d696c793d2227436f7572696572204e6577272c206d6f6e6f73706163652220666f6e742d73697a653d22313070782220786c696e6b3a687265663d2223746578742d706174682d61223e3c6c696e6561724772616469656e742069643d22677261642d646f776e222078313d2230222078323d2231222079313d2230222079323d2231223e3c73746f70206f66667365743d22302e30222073746f702d636f6c6f723d227768697465222073746f702d6f7061636974793d223122202f3e3c73746f70206f66667365743d22302e39222073746f702d636f6c6f723d227768697465222073746f702d6f7061636974793d223022202f3e3c2f6c696e6561724772616469656e743e3c66696c7465722069643d226631223e3c6665496d61676520726573756c743d2270302220786c696e6b3a687265663d22646174613a696d6167652f7376672b786d6c3b6261736536342c3c7376672077696474683d2732393027206865696768743d27353030272076696577426f783d2730203020323930203530302720786d6c6e733d27687474703a2f2f7777772e77332e6f72672f323030302f737667273e3c726563742077696474683d27323930707827206865696768743d273530307078272066696c6c3d2723222f3e3c6665496d61676520726573756c743d2270322220786c696e6b3a687265663d22646174613a696d6167652f7376672b786d6c3b6261736536342c3c656c6c697073652063783d22353025222063793d22307078222072783d223138307078222072793d223132307078222066696c6c3d222330303022206f7061636974793d22302e383522202f3e3c2f673e707822206865696768743d2232367078222072783d22387078222072793d22387078222066696c6c3d227267626128302c302c302c302e362922202f3e70782220723d22347078222066696c6c3d22776869746522202f3e3c636972636c652063783d2231312e333437384c32342031324c31342e343334312031322e363532324c32322e333932332031384c31332e373831392031332e373831394c31382032322e333932334c31322e363532322031342e343334314c31322032344c31312e333437382031342e343334314c362032322e33393c726563742066696c6c3d226e6f6e652220783d223070782220793d22307078222077696474683d22323930707822206865696768743d22353030707822202f3e4142434445464748494a4b4c4d4e4f505152535455565758595a6162636465666768696a6b6c6d6e6f707172737475767778797a303132333435363738392b2f20786d6c6e733a786c696e6b3d27687474703a2f2f7777772e77332e6f72672f313939392f786c696e6b273e3c6c696e6561724772616469656e742069643d22677261642d73796d626f6c223e3c73746f70206f66667365743d22302e37222073746f702d636f6c6f723d227768697465222073746f702d6f7061636974793d223122202f3e3c73746f70206f66667365743d222e3935222073746f702d636f6c6f723d227768697465222073746f702d6f7061636974793d223022202f3e3c2f6c696e6561724772616469656e743e207374796c653d227472616e73666f726d3a7472616e736c61746528373270782c313839707829223e3c7265637420783d222d313670782220793d222d31367078222077696474683d22313830707822206865696768743d223138307078222066696c6c3d226e6f6e6522202f3e3c7061746820643d22207374796c653d227472616e73666f726d3a7472616e736c61746528373270782c313839707829223e70782220723d2232347078222066696c6c3d226e6f6e6522207374726f6b653d22776869746522202f3e3c7265637420783d222d313670782220793d222d31367078222077696474683d22313830707822206865696768743d223138307078222066696c6c3d226e6f6e6522202f3e536166654d6174683a206d756c7469706c69636174696f6e206f766572666c6f773c673e3c70617468207374796c653d227472616e73666f726d3a7472616e736c617465283670782c367078292220643d224d313220304c31322e3635323220392e35363538374c313820312e363037374c31332e373831392031302e323138314c32322e3339323320364c31342e34333431203c70617468207374726f6b652d6c696e656361703d22726f756e642220643d224d38203943382e30303030342032322e393439342031362e32303939203238203237203238222066696c6c3d226e6f6e6522207374726f6b653d22776869746522202f3e20726570656174436f756e743d22696e646566696e69746522202f3e3c2f74657874506174683e3c74657874506174682073746172744f66667365743d222d353025222066696c6c3d2277686974652220666f6e742d66616d696c793d2227436f7572696572204e6577272c206d6f6e6f73706163652220666f6e742d73697a653d22313070782220786c696e6b3a687265663d2223746578742d706174682d61223e3c6d61736b2069643d22666164652d646f776e22206d61736b436f6e74656e74556e6974733d226f626a656374426f756e64696e67426f78223e3c726563742077696474683d223122206865696768743d2231222066696c6c3d2275726c2823677261642d646f776e2922202f3e3c2f6d61736b3e22207374726f6b653d2272676261283235352c3235352c3235352c3129222066696c6c3d226e6f6e6522207374726f6b652d6c696e656361703d22726f756e6422202f3e3c2f673e696e3d22626c656e644f75742220737464446576696174696f6e3d22343222202f3e3c2f66696c7465723e203c636c6970506174682069643d22636f726e657273223e3c726563742077696474683d2232393022206865696768743d22353030222072783d223432222072793d22343222202f3e3c2f636c6970506174683e203c67207374796c653d227472616e73666f726d3a7472616e736c61746528323970782c20333834707829223e3c6c696e6561724772616469656e742069643d22677261642d7570222078313d2231222078323d2230222079313d2231222079323d2230223e3c73746f70206f66667365743d22302e30222073746f702d636f6c6f723d227768697465222073746f702d6f7061636974793d223122202f3e32334c31302e323138312031332e373831394c312e363037372031384c392e35363538372031322e363532324c302031324c392e35363538372031312e333437384c312e3630373720364c31302e323138312031302e323138314c3620312e363037374c31312e3334373820392e35363538374c313220305a222066696c6c3d22776869746522202f3e3c67207374796c653d227472616e73666f726d3a7472616e736c6174652832323670782c20333932707829223e3c726563742077696474683d223336707822206865696768743d2233367078222072783d22387078222072793d22387078222066696c6c3d226e6f6e6522207374726f6b653d2272676261283235352c3235352c3235352c302e322922202f3e3c74657874506174682073746172744f66667365743d22353025222066696c6c3d2277686974652220666f6e742d66616d696c793d2227436f7572696572204e6577272c206d6f6e6f73706163652220666f6e742d73697a653d22313070782220786c696e6b3a687265663d2223746578742d706174682d61223e3c7465787420783d22313270782220793d22313770782220666f6e742d66616d696c793d2227436f7572696572204e6577272c206d6f6e6f73706163652220666f6e742d73697a653d2231327078222066696c6c3d227768697465223e3c747370616e2066696c6c3d2272676261283235352c3235352c3235352c302e3629223e4d6178205469636b3a203c2f747370616e3e3c616e696d6174655472616e73666f726d206174747269627574654e616d653d227472616e73666f726d2220747970653d22726f74617465222066726f6d3d22302031382031382220746f3d2233363020313820313822206475723d223130732220726570656174436f756e743d22696e646566696e697465222f3e3c2f673e3c2f673e3c706174682069643d22746578742d706174682d612220643d224d34302031322048323530204132382032382030203020312032373820343020563436302041323820323820302030203120323530203438382048343020413238203238203020302031203132203436302056343020413238203238203020302031203430203132207a22202f3e222f3e3c6665496d61676520726573756c743d2270312220786c696e6b3a687265663d22646174613a696d6167652f7376672b786d6c3b6261736536342c3c6d61736b2069643d22666164652d73796d626f6c22206d61736b436f6e74656e74556e6974733d227573657253706163654f6e557365223e3c726563742077696474683d22323930707822206865696768743d223230307078222066696c6c3d2275726c2823677261642d73796d626f6c2922202f3e3c2f6d61736b3e3c2f646566733e3c7265637420783d22302220793d2230222077696474683d2232393022206865696768743d22353030222072783d223432222072793d223432222066696c6c3d227267626128302c302c302c302922207374726f6b653d2272676261283235352c3235352c3235352c302e322922202f3e3c2f673e3c66696c7465722069643d22746f702d726567696f6e2d626c7572223e3c6665476175737369616e426c757220696e3d22536f75726365477261706869632220737464446576696174696f6e3d22323422202f3e3c2f66696c7465723e3c2f74657874506174683e203c74657874506174682073746172744f66667365743d223025222066696c6c3d2277686974652220666f6e742d66616d696c793d2227436f7572696572204e6577272c206d6f6e6f73706163652220666f6e742d73697a653d22313070782220786c696e6b3a687265663d2223746578742d706174682d61223e3c7465787420746578742d72656e646572696e673d226f7074696d697a655370656564223e5369676e6564536166654d6174683a207375627472616374696f6e206f766572666c6f773c7265637420783d2231362220793d223136222077696474683d2232353822206865696768743d22343638222072783d223236222072793d223236222066696c6c3d227267626128302c302c302c302922207374726f6b653d2272676261283235352c3235352c3235352c302e322922202f3e3c7465787420783d22313270782220793d22313770782220666f6e742d66616d696c793d2227436f7572696572204e6577272c206d6f6e6f73706163652220666f6e742d73697a653d2231327078222066696c6c3d227768697465223e3c747370616e2066696c6c3d2272676261283235352c3235352c3235352c302e3629223e49443a203c2f747370616e3e3c726563742077696474683d223336707822206865696768743d2233367078222072783d22387078222072793d22387078222066696c6c3d226e6f6e6522207374726f6b653d2272676261283235352c3235352c3235352c302e322922202f3e3c2f746578743e3c7465787420793d2231313570782220783d2233327078222066696c6c3d2277686974652220666f6e742d66616d696c793d2227436f7572696572204e6577272c206d6f6e6f73706163652220666f6e742d7765696768743d223230302220666f6e742d73697a653d2233367078223e3c2f746578743e3c2f673e3c67207374796c653d227472616e73666f726d3a7472616e736c6174652832323670782c20343333707829223e203c67207374796c653d227472616e73666f726d3a7472616e736c61746528323970782c20343134707829223ea2646970667358221220c8f83174352cd353c1aa1f087e7b11821548054e978f344fbf17362449001e7164736f6c63430007060033",
  "linkReferences": {},
  "deployedLinkReferences": {}
}