{
  "_format": "hh-sol-artifact-1",
  "contractName": "NonfungibleTokenPositionDescriptor",
  "sourceName": "contracts/NonfungibleTokenPositionDescriptor.sol",
  "abi": [
    {
      "inputs": [
        {
          "internalType": "address",
          "name": "_WETH9",
          "type": "address"
        }
      ],
      "stateMutability": "nonpayable",
      "type": "constructor"
    },
    {
      "inputs": [],
      "name": "WETH9",
      "outputs": [
        {
          "internalType": "address",
          "name": "",
          "type": "address"
        }
      ],
      "stateMutability": "view",
      "type": "function"
    },
    {
      "inputs": [
        {
          "internalType": "address",
          "name": "token0",
          "type": "address"
        },
        {
          "internalType": "address",
          "name": "token1",
          "type": "address"
        },
        {
          "internalType": "uint256",
          "name": "chainId",
          "type": "uint256"
        }
      ],
      "name": "flipRatio",
      "outputs": [
        {
          "internalType": "bool",
          "name": "",
          "type": "bool"
        }
      ],
      "stateMutability": "view",
      "type": "function"
    },
    {
      "inputs": [
        {
          "internalType": "address",
          "name": "token",
          "type": "address"
        },
        {
          "internalType": "uint256",
          "name": "chainId",
          "type": "uint256"
        }
      ],
      "name": "tokenRatioPriority",
      "outputs": [
        {
          "internalType": "int256",
          "name": "",
          "type": "int256"
        }
      ],
      "stateMutability": "view",
      "type": "function"
    },
    {
      "inputs": [
        {
          "internalType": "contract INonfungiblePositionManager",
          "name": "positionManager",
          "type": "address"
        },
        {
          "internalType": "uint256",
          "name": "tokenId",
          "type": "uint256"
        }
      ],
      "name": "tokenURI",
      "outputs": [
        {
          "internalType": "string",
          "name": "",
          "type": "string"
        }
      ],
      "stateMutability": "view",
      "type": "function"
    }
  ],
  "bytecode": "0x60a060405234801561001057600080fd5b506040516112b03803806112b083398101604081905261002f91610044565b60601b6001600160601b031916608052610072565b600060208284031215610055578081fd5b81516001600160a01b038116811461006b578182fd5b9392505050565b60805160601c61121d6100936000398060d15280610116525061121d6000f3fe608060405234801561001057600080fd5b506004361061004c5760003560e01c80634aa4a4fc146100515780637e5af7711461006f5780639d7b0ea81461008f578063e9dc6375146100af575b600080fd5b6100596100cf565b6040516100669190611046565b60405180910390f35b61008261007d366004610d52565b6100f3565b604051610066919061105a565b6100a261009d366004610d92565b610112565b6040516100669190611065565b6100c26100bd366004610d92565b610240565b604051610066919061106e565b7f000000000000000000000000000000000000000000000000000000000000000081565b60006100ff8383610112565b6101098584610112565b13949350505050565b60007f00000000000000000000000000000000000000000000000000000000000000006001600160a01b0316836001600160a01b03161415610157575060631961023a565b8160011415610236576001600160a01b0383167306efdbff2a14a7c8e15944d1f4a48f9f95f663a4141561018e575061012c61023a565b6001600160a01b03831673f55bec9cafdbe8730f096aa55dad6d22d44099df14156101bb575060c861023a565b6001600160a01b03831673ca77eb3fefe3725dc33bccb54edefc3d9f764f9714156101e85750606461023a565b6001600160a01b0383166101ff575060c71961023a565b6001600160a01b038316733c1bca5a656e69edcd0d4e36bebb3fcdaca60cf1141561022e575061012b1961023a565b50600061023a565b5060005b92915050565b60606000806000806000876001600160a01b03166399fbab88886040518263ffffffff1660e01b81526004016102769190611065565b6101806040518083038186803b15801561028f57600080fd5b505afa1580156102a3573d6000803e3d6000fd5b505050506040513d601f19601f820116820180604052508101906102c79190610f16565b50505050509650965096509650965050506000610385896001600160a01b031663c45a01556040518163ffffffff1660e01b815260040160206040518083038186803b15801561031657600080fd5b505afa15801561032a573d6000803e3d6000fd5b505050506040513d601f19601f8201168201806040525081019061034e9190610d2f565b6040518060600160405280896001600160a01b03168152602001886001600160a01b031681526020018762ffffff168152506106c4565b90506000610396878761007d6107a3565b9050600081156103a657876103a8565b865b9050600082156103b857876103ba565b885b90506000846001600160a01b0316633850c7bd6040518163ffffffff1660e01b815260040160e06040518083038186803b1580156103f757600080fd5b505afa15801561040b573d6000803e3d6000fd5b505050506040513d601f19601f8201168201806040525081019061042f9190610e6d565b505050505091505073__$cea9be979eee3d87fb124d6cbb244bb0b5$__63c49917d7604051806101c001604052808f8152602001866001600160a01b03168152602001856001600160a01b0316815260200161048a876107a7565b8152602001610498866107a7565b8152602001866001600160a01b031663313ce5676040518163ffffffff1660e01b815260040160206040518083038186803b1580156104d657600080fd5b505afa1580156104ea573d6000803e3d6000fd5b505050506040513d601f19601f8201168201806040525081019061050e9190610efc565b60ff168152602001856001600160a01b031663313ce5676040518163ffffffff1660e01b815260040160206040518083038186803b15801561054f57600080fd5b505afa158015610563573d6000803e3d6000fd5b505050506040513d601f19601f820116820180604052508101906105879190610efc565b60ff16815260200187151581526020018a60020b81526020018960020b81526020018460020b8152602001886001600160a01b031663d0c93a7c6040518163ffffffff1660e01b815260040160206040518083038186803b1580156105eb57600080fd5b505afa1580156105ff573d6000803e3d6000fd5b505050506040513d601f19601f820116820180604052508101906106239190610dbd565b60020b81526020018b62ffffff168152602001886001600160a01b03168152506040518263ffffffff1660e01b815260040161065f9190611081565b60006040518083038186803b15801561067757600080fd5b505af415801561068b573d6000803e3d6000fd5b505050506040513d6000823e601f3d908101601f191682016040526106b39190810190610dd7565b9d9c50505050505050505050505050565b600081602001516001600160a01b031682600001516001600160a01b0316106106ec57600080fd5b50805160208083015160409384015184516001600160a01b0394851681850152939091168385015262ffffff166060808401919091528351808403820181526080840185528051908301206001600160f81b031960a085015294901b6001600160601b03191660a183015260b58201939093527fcf0b3414328c2bd327a4f093539d0d7d82fb94f893a2965c75cb470289cb5ac760d5808301919091528251808303909101815260f5909101909152805191012090565b4690565b606060006107bc836395d89b4160e01b6107e1565b90508051600014156107d9576107d183610a07565b9150506107dc565b90505b919050565b60408051600481526024810182526020810180516001600160e01b03166001600160e01b031985161781529151815160609360009384936001600160a01b03891693919290918291908083835b6020831061084d5780518252601f19909201916020918201910161082e565b6001836020036101000a038019825116818451168082178552505050505050905001915050600060405180830381855afa9150503d80600081146108ad576040519150601f19603f3d011682016040523d82523d6000602084013e6108b2565b606091505b50915091508115806108c357508051155b156108e157604051806020016040528060008152509250505061023a565b80516020141561091957600081806020019051602081101561090257600080fd5b5051905061090f81610a14565b935050505061023a565b6040815111156109ef5780806020019051602081101561093857600080fd5b8101908080516040519392919084600160201b82111561095757600080fd5b90830190602082018581111561096c57600080fd5b8251600160201b81118282018810171561098557600080fd5b82525081516020918201929091019080838360005b838110156109b257818101518382015260200161099a565b50505050905090810190601f1680156109df5780820380516001836020036101000a031916815260200191505b506040525050509250505061023a565b50506040805160208101909152600081529392505050565b60606107d9826006610b3b565b604080516020808252818301909252606091600091906020820181803683370190505090506000805b6020811015610a9e576000858260208110610a5457fe5b1a60f81b90506001600160f81b0319811615610a955780848481518110610a7757fe5b60200101906001600160f81b031916908160001a9053506001909201915b50600101610a3d565b506000816001600160401b0381118015610ab757600080fd5b506040519080825280601f01601f191660200182016040528015610ae2576020820181803683370190505b50905060005b82811015610b3257838181518110610afc57fe5b602001015160f81c60f81b828281518110610b1357fe5b60200101906001600160f81b031916908160001a905350600101610ae8565b50949350505050565b606060028206158015610b4e5750600082115b8015610b5b575060288211155b610bac576040805162461bcd60e51b815260206004820152601e60248201527f41646472657373537472696e675574696c3a20494e56414c49445f4c454e0000604482015290519081900360640190fd5b6000826001600160401b0381118015610bc457600080fd5b506040519080825280601f01601f191660200182016040528015610bef576020820181803683370190505b5090506001600160a01b03841660005b60028504811015610c9357600860138290030282901c600f600482901c1660f082168203610c2c82610c9d565b868560020281518110610c3b57fe5b60200101906001600160f81b031916908160001a905350610c5b81610c9d565b868560020260010181518110610c6d57fe5b60200101906001600160f81b031916908160001a9053505060019092019150610bff9050565b5090949350505050565b6000600a8260ff161015610cb857506030810160f81b6107dc565b506037810160f81b6107dc565b80516107dc816111cf565b8051600281900b81146107dc57600080fd5b80516001600160801b03811681146107dc57600080fd5b805161ffff811681146107dc57600080fd5b805162ffffff811681146107dc57600080fd5b805160ff811681146107dc57600080fd5b600060208284031215610d40578081fd5b8151610d4b816111cf565b9392505050565b600080600060608486031215610d66578182fd5b8335610d71816111cf565b92506020840135610d81816111cf565b929592945050506040919091013590565b60008060408385031215610da4578182fd5b8235610daf816111cf565b946020939093013593505050565b600060208284031215610dce578081fd5b610d4b82610cd0565b600060208284031215610de8578081fd5b81516001600160401b0380821115610dfe578283fd5b818401915084601f830112610e11578283fd5b815181811115610e1d57fe5b604051601f8201601f191681016020018381118282101715610e3b57fe5b604052818152838201602001871015610e52578485fd5b610e6382602083016020870161119f565b9695505050505050565b600080600080600080600060e0888a031215610e87578283fd5b8751610e92816111cf565b9650610ea060208901610cd0565b9550610eae60408901610cf9565b9450610ebc60608901610cf9565b9350610eca60808901610cf9565b9250610ed860a08901610d1e565b915060c08801518015158114610eec578182fd5b8091505092959891949750929550565b600060208284031215610f0d578081fd5b610d4b82610d1e565b6000806000806000806000806000806000806101808d8f031215610f38578485fd5b8c516001600160601b0381168114610f4e578586fd5b9b50610f5c60208e01610cc5565b9a50610f6a60408e01610cc5565b9950610f7860608e01610cc5565b9850610f8660808e01610d0b565b9750610f9460a08e01610cd0565b9650610fa260c08e01610cd0565b9550610fb060e08e01610ce2565b94506101008d015193506101208d01519250610fcf6101408e01610ce2565b9150610fde6101608e01610ce2565b90509295989b509295989b509295989b565b6001600160a01b03169052565b15159052565b60020b9052565b6000815180845261102281602086016020860161119f565b601f01601f19169290920160200192915050565b62ffffff169052565b60ff169052565b6001600160a01b0391909116815260200190565b901515815260200190565b90815260200190565b600060208252610d4b602083018461100a565b6000602082528251602083015260208301516110a06040840182610ff0565b5060408301516110b36060840182610ff0565b5060608301516101c08060808501526110d06101e085018361100a565b91506080850151601f198584030160a08601526110ed838261100a565b92505060a085015161110260c086018261103f565b5060c085015161111560e086018261103f565b5060e085015161010061112a81870183610ffd565b860151905061012061113e86820183611003565b860151905061014061115286820183611003565b860151905061016061116686820183611003565b860151905061018061117a86820183611003565b86015190506101a061118e86820183611036565b8601519050610c9385830182610ff0565b60005b838110156111ba5781810151838201526020016111a2565b838111156111c9576000848401525b50505050565b6001600160a01b03811681146111e457600080fd5b5056fea2646970667358221220604c37db219fb8b086cf5145ae8201a1fbff683c6e81973ea1c6f18ae08c9c7364736f6c63430007060033",
  "linkReferences": {
    "contracts/libraries/NFTDescriptor.sol": {
      "NFTDescriptor": [
        {
          "length": 20,
          "start": 1228
        }
      ]
    }
  },
  "deployedLinkReferences": {
    "contracts/libraries/NFTDescriptor.sol": {
      "NFTDescriptor": [
        {
          "length": 20,
          "start": 1081
        }
      ]
    }
  }
}