{
  "_format": "hh-sol-artifact-1",
  "contractName": "QuoterV2",
  "sourceName": "contracts/len/QuoterV2.sol",
  "abi": [
    {
      "inputs": [
        {
          "internalType": "address",
          "name": "_factory",
          "type": "address"
        },
        {
          "internalType": "address",
          "name": "_WETH9",
          "type": "address"
        }
      ],
      "stateMutability": "nonpayable",
      "type": "constructor"
    },
    {
      "inputs": [],
      "name": "WETH9",
      "outputs": [
        {
          "internalType": "address",
          "name": "",
          "type": "address"
        }
      ],
      "stateMutability": "view",
      "type": "function"
    },
    {
      "inputs": [],
      "name": "factory",
      "outputs": [
        {
          "internalType": "address",
          "name": "",
          "type": "address"
        }
      ],
      "stateMutability": "view",
      "type": "function"
    },
    {
      "inputs": [
        {
          "internalType": "bytes",
          "name": "path",
          "type": "bytes"
        },
        {
          "internalType": "uint256",
          "name": "amountIn",
          "type": "uint256"
        }
      ],
      "name": "quoteExactInput",
      "outputs": [
        {
          "internalType": "uint256",
          "name": "amountOut",
          "type": "uint256"
        },
        {
          "internalType": "uint160[]",
          "name": "sqrtPriceX96AfterList",
          "type": "uint160[]"
        },
        {
          "internalType": "uint32[]",
          "name": "initializedTicksCrossedList",
          "type": "uint32[]"
        },
        {
          "internalType": "uint256",
          "name": "gasEstimate",
          "type": "uint256"
        }
      ],
      "stateMutability": "nonpayable",
      "type": "function"
    },
    {
      "inputs": [
        {
          "components": [
            {
              "internalType": "address",
              "name": "tokenIn",
              "type": "address"
            },
            {
              "internalType": "address",
              "name": "tokenOut",
              "type": "address"
            },
            {
              "internalType": "uint256",
              "name": "amountIn",
              "type": "uint256"
            },
            {
              "internalType": "uint24",
              "name": "fee",
              "type": "uint24"
            },
            {
              "internalType": "uint160",
              "name": "sqrtPriceLimitX96",
              "type": "uint160"
            }
          ],
          "internalType": "struct IQuoterV2.QuoteExactInputSingleParams",
          "name": "params",
          "type": "tuple"
        }
      ],
      "name": "quoteExactInputSingle",
      "outputs": [
        {
          "internalType": "uint256",
          "name": "amountOut",
          "type": "uint256"
        },
        {
          "internalType": "uint160",
          "name": "sqrtPriceX96After",
          "type": "uint160"
        },
        {
          "internalType": "uint32",
          "name": "initializedTicksCrossed",
          "type": "uint32"
        },
        {
          "internalType": "uint256",
          "name": "gasEstimate",
          "type": "uint256"
        }
      ],
      "stateMutability": "nonpayable",
      "type": "function"
    },
    {
      "inputs": [
        {
          "internalType": "bytes",
          "name": "path",
          "type": "bytes"
        },
        {
          "internalType": "uint256",
          "name": "amountOut",
          "type": "uint256"
        }
      ],
      "name": "quoteExactOutput",
      "outputs": [
        {
          "internalType": "uint256",
          "name": "amountIn",
          "type": "uint256"
        },
        {
          "internalType": "uint160[]",
          "name": "sqrtPriceX96AfterList",
          "type": "uint160[]"
        },
        {
          "internalType": "uint32[]",
          "name": "initializedTicksCrossedList",
          "type": "uint32[]"
        },
        {
          "internalType": "uint256",
          "name": "gasEstimate",
          "type": "uint256"
        }
      ],
      "stateMutability": "nonpayable",
      "type": "function"
    },
    {
      "inputs": [
        {
          "components": [
            {
              "internalType": "address",
              "name": "tokenIn",
              "type": "address"
            },
            {
              "internalType": "address",
              "name": "tokenOut",
              "type": "address"
            },
            {
              "internalType": "uint256",
              "name": "amount",
              "type": "uint256"
            },
            {
              "internalType": "uint24",
              "name": "fee",
              "type": "uint24"
            },
            {
              "internalType": "uint160",
              "name": "sqrtPriceLimitX96",
              "type": "uint160"
            }
          ],
          "internalType": "struct IQuoterV2.QuoteExactOutputSingleParams",
          "name": "params",
          "type": "tuple"
        }
      ],
      "name": "quoteExactOutputSingle",
      "outputs": [
        {
          "internalType": "uint256",
          "name": "amountIn",
          "type": "uint256"
        },
        {
          "internalType": "uint160",
          "name": "sqrtPriceX96After",
          "type": "uint160"
        },
        {
          "internalType": "uint32",
          "name": "initializedTicksCrossed",
          "type": "uint32"
        },
        {
          "internalType": "uint256",
          "name": "gasEstimate",
          "type": "uint256"
        }
      ],
      "stateMutability": "nonpayable",
      "type": "function"
    },
    {
      "inputs": [
        {
          "internalType": "int256",
          "name": "amount0Delta",
          "type": "int256"
        },
        {
          "internalType": "int256",
          "name": "amount1Delta",
          "type": "int256"
        },
        {
          "internalType": "bytes",
          "name": "path",
          "type": "bytes"
        }
      ],
      "name": "zebraV3SwapCallback",
      "outputs": [],
      "stateMutability": "view",
      "type": "function"
    }
  ],
  "bytecode": "0x60c06040523480156200001157600080fd5b5060405162001bce38038062001bce833981016040819052620000349162000070565b6001600160601b0319606092831b8116608052911b1660a052620000a7565b80516001600160a01b03811681146200006b57600080fd5b919050565b6000806040838503121562000083578182fd5b6200008e8362000053565b91506200009e6020840162000053565b90509250929050565b60805160601c60a05160601c611af3620000db600039806102ce525080610321528061064052806109fa5250611af36000f3fe608060405234801561001057600080fd5b506004361061006d5760003560e01c80632f80bb1d146100725780634aa4a4fc1461009e5780639feb758b146100b3578063bd21704a146100c8578063c45a0155146100eb578063c6a5026a146100f3578063cdca175314610106575b600080fd5b610085610080366004611662565b610119565b604051610095949392919061196c565b60405180910390f35b6100a66102cc565b60405161009591906118d5565b6100c66100c13660046116c7565b6102f0565b005b6100db6100d636600461177d565b61046b565b6040516100959493929190611a07565b6100a661063e565b6100db61010136600461177d565b610662565b610085610114366004611662565b6107d8565b600060608060006101298661096d565b6001600160401b038111801561013e57600080fd5b50604051908082528060200260200182016040528015610168578160200160208202803683370190505b5092506101748661096d565b6001600160401b038111801561018957600080fd5b506040519080825280602002602001820160405280156101b3578160200160208202803683370190505b50915060005b60008060006101c78a61097e565b9250925092506000806000806102236040518060a00160405280886001600160a01b03168152602001896001600160a01b031681526020018f81526020018762ffffff16815260200160006001600160a01b031681525061046b565b9350935093509350828b898151811061023857fe5b60200260200101906001600160a01b031690816001600160a01b031681525050818a898151811061026557fe5b63ffffffff90921660209283029190910190910152929b50968201966001909601958b926102928e6109af565b156102a7576102a08e6109b7565b9d506102b7565b8c9b5050505050505050506102c3565b505050505050506101b9565b92959194509250565b7f000000000000000000000000000000000000000000000000000000000000000081565b60008313806102ff5750600082135b61030857600080fd5b60008060006103168461097e565b9250925092506103487f00000000000000000000000000000000000000000000000000000000000000008484846109d4565b50600080600080891361037457856001600160a01b0316856001600160a01b031610888a60000361038f565b846001600160a01b0316866001600160a01b03161089896000035b92509250925060006103a28787876109f3565b9050600080826001600160a01b0316633850c7bd6040518163ffffffff1660e01b815260040160e06040518083038186803b1580156103e057600080fd5b505afa1580156103f4573d6000803e3d6000fd5b505050506040513d601f19601f82011682018060405250810190610418919061179f565b505050505091509150851561043e57604051848152826020820152816040820152606081fd5b6000541561045457600054841461045457600080fd5b604051858152826020820152816040820152606081fd5b6020810151815160608301516000928392839283926001600160a01b038082169084161092849261049c92906109f3565b905086608001516001600160a01b0316600014156104bd5760408701516000555b60005a9050816001600160a01b031663128acb0830856104e08c60400151610a31565b6000038c608001516001600160a01b0316600014610502578c60800151610528565b876105215773fffd8963efd1fc6a506488495d951d5263988d25610528565b6401000276a45b8d602001518e606001518f600001516040516020016105499392919061189f565b6040516020818303038152906040526040518663ffffffff1660e01b81526004016105789594939291906118e9565b6040805180830381600087803b15801561059157600080fd5b505af19250505080156105c1575060408051601f3d908101601f191682019092526105be918101906116a4565b60015b610631573d8080156105ef576040519150601f19603f3d011682016040523d82523d6000602084013e6105f4565b606091505b505a8203945088608001516001600160a01b03166000141561061557600080555b610620818487610a47565b975097509750975050505050610637565b50505050505b9193509193565b7f000000000000000000000000000000000000000000000000000000000000000081565b6020810151815160608301516000928392839283926001600160a01b038082169084161092849261069392906109f3565b905060005a9050816001600160a01b031663128acb0830856106b88c60400151610a31565b60808d01516001600160a01b0316156106d5578c608001516106fb565b876106f45773fffd8963efd1fc6a506488495d951d5263988d256106fb565b6401000276a45b8d600001518e606001518f6020015160405160200161071c9392919061189f565b6040516020818303038152906040526040518663ffffffff1660e01b815260040161074b9594939291906118e9565b6040805180830381600087803b15801561076457600080fd5b505af1925050508015610794575060408051601f3d908101601f19168201909252610791918101906116a4565b60015b610631573d8080156107c2576040519150601f19603f3d011682016040523d82523d6000602084013e6107c7565b606091505b505a82039450610620818487610a47565b600060608060006107e88661096d565b6001600160401b03811180156107fd57600080fd5b50604051908082528060200260200182016040528015610827578160200160208202803683370190505b5092506108338661096d565b6001600160401b038111801561084857600080fd5b50604051908082528060200260200182016040528015610872578160200160208202803683370190505b50915060005b60008060006108868a61097e565b9250925092506000806000806108e26040518060a00160405280896001600160a01b03168152602001886001600160a01b031681526020018f81526020018762ffffff16815260200160006001600160a01b0316815250610662565b9350935093509350828b89815181106108f757fe5b60200260200101906001600160a01b031690816001600160a01b031681525050818a898151811061092457fe5b63ffffffff90921660209283029190910190910152929b50968201966001909601958b926109518e6109af565b156102a75761095f8e6109b7565b9d5050505050505050610878565b80516017601319909101045b919050565b6000808061098c8482610b01565b9250610999846014610bb1565b90506109a6846017610b01565b91509193909250565b516042111590565b80516060906109ce90839060179060161901610c58565b92915050565b60006109ea856109e5868686610da9565b610dff565b95945050505050565b6000610a297f0000000000000000000000000000000000000000000000000000000000000000610a24868686610da9565b610e22565b949350505050565b6000600160ff1b8210610a4357600080fd5b5090565b600080600080600080876001600160a01b0316633850c7bd6040518163ffffffff1660e01b815260040160e06040518083038186803b158015610a8957600080fd5b505afa158015610a9d573d6000803e3d6000fd5b505050506040513d601f19601f82011682018060405250810190610ac1919061179f565b50939650610ad694508d9350610f0192505050565b91975095509050610af16001600160a01b0389168383610f8e565b9350869250505093509350935093565b600081826014011015610b50576040805162461bcd60e51b8152602060048201526012602482015271746f416464726573735f6f766572666c6f7760701b604482015290519081900360640190fd5b8160140183511015610ba1576040805162461bcd60e51b8152602060048201526015602482015274746f416464726573735f6f75744f66426f756e647360581b604482015290519081900360640190fd5b500160200151600160601b900490565b600081826003011015610bff576040805162461bcd60e51b8152602060048201526011602482015270746f55696e7432345f6f766572666c6f7760781b604482015290519081900360640190fd5b8160030183511015610c4f576040805162461bcd60e51b8152602060048201526014602482015273746f55696e7432345f6f75744f66426f756e647360601b604482015290519081900360640190fd5b50016003015190565b60608182601f011015610ca3576040805162461bcd60e51b815260206004820152600e60248201526d736c6963655f6f766572666c6f7760901b604482015290519081900360640190fd5b828284011015610ceb576040805162461bcd60e51b815260206004820152600e60248201526d736c6963655f6f766572666c6f7760901b604482015290519081900360640190fd5b81830184511015610d37576040805162461bcd60e51b8152602060048201526011602482015270736c6963655f6f75744f66426f756e647360781b604482015290519081900360640190fd5b606082158015610d565760405191506000825260208201604052610da0565b6040519150601f8416801560200281840101858101878315602002848b0101015b81831015610d8f578051835260209283019201610d77565b5050858452601f01601f1916604052505b50949350505050565b610db1611532565b826001600160a01b0316846001600160a01b03161115610dcf579192915b50604080516060810182526001600160a01b03948516815292909316602083015262ffffff169181019190915290565b6000610e0b8383610e22565b9050336001600160a01b038216146109ce57600080fd5b600081602001516001600160a01b031682600001516001600160a01b031610610e4a57600080fd5b50805160208083015160409384015184516001600160a01b0394851681850152939091168385015262ffffff166060808401919091528351808403820181526080840185528051908301206001600160f81b031960a085015294901b6001600160601b03191660a183015260b58201939093527fcf0b3414328c2bd327a4f093539d0d7d82fb94f893a2965c75cb470289cb5ac760d5808301919091528251808303909101815260f5909101909152805191012090565b60008060008351606014610f6d57604484511015610f3a5760405162461bcd60e51b8152600401610f3190611942565b60405180910390fd5b60048401935083806020019051810190610f549190611714565b60405162461bcd60e51b8152600401610f31919061192f565b83806020019051810190610f819190611836565b9250925092509193909250565b60008060008060008060008060088b6001600160a01b031663d0c93a7c6040518163ffffffff1660e01b815260040160206040518083038186803b158015610fd557600080fd5b505afa158015610fe9573d6000803e3d6000fd5b505050506040513d6020811015610fff57600080fd5b5051600290810b908c900b8161101157fe5b0560020b901d905060006101008c6001600160a01b031663d0c93a7c6040518163ffffffff1660e01b815260040160206040518083038186803b15801561105757600080fd5b505afa15801561106b573d6000803e3d6000fd5b505050506040513d602081101561108157600080fd5b5051600290810b908d900b8161109357fe5b0560020b8161109e57fe5b079050600060088d6001600160a01b031663d0c93a7c6040518163ffffffff1660e01b815260040160206040518083038186803b1580156110de57600080fd5b505afa1580156110f2573d6000803e3d6000fd5b505050506040513d602081101561110857600080fd5b5051600290810b908d900b8161111a57fe5b0560020b901d905060006101008e6001600160a01b031663d0c93a7c6040518163ffffffff1660e01b815260040160206040518083038186803b15801561116057600080fd5b505afa158015611174573d6000803e3d6000fd5b505050506040513d602081101561118a57600080fd5b5051600290810b908e900b8161119c57fe5b0560020b816111a757fe5b07905060008160ff166001901b8f6001600160a01b0316635339c296856040518263ffffffff1660e01b8152600401808260010b815260200191505060206040518083038186803b1580156111fb57600080fd5b505afa15801561120f573d6000803e3d6000fd5b505050506040513d602081101561122557600080fd5b5051161180156112ab57508d6001600160a01b031663d0c93a7c6040518163ffffffff1660e01b815260040160206040518083038186803b15801561126957600080fd5b505afa15801561127d573d6000803e3d6000fd5b505050506040513d602081101561129357600080fd5b5051600290810b908d900b816112a557fe5b0760020b155b80156112bc57508b60020b8d60020b135b945060008360ff166001901b8f6001600160a01b0316635339c296876040518263ffffffff1660e01b8152600401808260010b815260200191505060206040518083038186803b15801561130f57600080fd5b505afa158015611323573d6000803e3d6000fd5b505050506040513d602081101561133957600080fd5b5051161180156113bf57508d6001600160a01b031663d0c93a7c6040518163ffffffff1660e01b815260040160206040518083038186803b15801561137d57600080fd5b505afa158015611391573d6000803e3d6000fd5b505050506040513d60208110156113a757600080fd5b5051600290810b908e900b816113b957fe5b0760020b155b80156113d057508b60020b8d60020b125b95508160010b8460010b12806113fc57508160010b8460010b1480156113fc57508060ff168360ff1611155b156114125783995082975081985080965061141f565b8199508097508398508296505b505060001960ff87161b9150505b8560010b8760010b136114ef578560010b8760010b14156114545760001960ff858103161c165b6000818c6001600160a01b0316635339c2968a6040518263ffffffff1660e01b8152600401808260010b815260200191505060206040518083038186803b15801561149e57600080fd5b505afa1580156114b2573d6000803e3d6000fd5b505050506040513d60208110156114c857600080fd5b50511690506114d681611517565b61ffff169890980197505060019095019460001961142d565b81156114fc576001880397505b8215611509576001880397505b505050505050509392505050565b6000805b82156109ce5760001983019092169160010161151b565b604080516060810182526000808252602082018190529181019190915290565b600082601f830112611562578081fd5b813561157561157082611a54565b611a31565b818152846020838601011115611589578283fd5b816020850160208301379081016020019190915292915050565b8051600281900b811461097957600080fd5b600060a082840312156115c6578081fd5b60405160a081016001600160401b03811182821017156115e257fe5b60405290508082356115f381611aa5565b8152602083013561160381611aa5565b602082015260408381013590820152606083013562ffffff8116811461162857600080fd5b606082015261163960808401611645565b60808201525092915050565b803561097981611aa5565b805161ffff8116811461097957600080fd5b60008060408385031215611674578182fd5b82356001600160401b03811115611689578283fd5b61169585828601611552565b95602094909401359450505050565b600080604083850312156116b6578182fd5b505080516020909101519092909150565b6000806000606084860312156116db578081fd5b833592506020840135915060408401356001600160401b038111156116fe578182fd5b61170a86828701611552565b9150509250925092565b600060208284031215611725578081fd5b81516001600160401b0381111561173a578182fd5b8201601f8101841361174a578182fd5b805161175861157082611a54565b81815285602083850101111561176c578384fd5b6109ea826020830160208601611a75565b600060a0828403121561178e578081fd5b61179883836115b5565b9392505050565b600080600080600080600060e0888a0312156117b9578283fd5b87516117c481611aa5565b96506117d2602089016115a3565b95506117e060408901611650565b94506117ee60608901611650565b93506117fc60808901611650565b925060a088015160ff81168114611811578283fd5b60c08901519092508015158114611826578182fd5b8091505092959891949750929550565b60008060006060848603121561184a578081fd5b83519250602084015161185c81611aa5565b915061186a604085016115a3565b90509250925092565b6000815180845261188b816020860160208601611a75565b601f01601f19169290920160200192915050565b606093841b6001600160601b0319908116825260e89390931b6001600160e81b0319166014820152921b166017820152602b0190565b6001600160a01b0391909116815260200190565b6001600160a01b0386811682528515156020830152604082018590528316606082015260a06080820181905260009061192490830184611873565b979650505050505050565b6000602082526117986020830184611873565b60208082526010908201526f2ab732bc3832b1ba32b21032b93937b960811b604082015260600190565b600060808201868352602060808185015281875180845260a0860191508289019350845b818110156119b55784516001600160a01b031683529383019391830191600101611990565b505084810360408601528651808252908201925081870190845b818110156119f157825163ffffffff16855293830193918301916001016119cf565b5050505060609290920192909252949350505050565b9384526001600160a01b0392909216602084015263ffffffff166040830152606082015260800190565b6040518181016001600160401b0381118282101715611a4c57fe5b604052919050565b60006001600160401b03821115611a6757fe5b50601f01601f191660200190565b60005b83811015611a90578181015183820152602001611a78565b83811115611a9f576000848401525b50505050565b6001600160a01b0381168114611aba57600080fd5b5056fea2646970667358221220617598b2b127eaa18e6ce11871a6121c3117db53a6fcbf90c89b744d6d67a9a664736f6c63430007060033",
  "linkReferences": {},
  "deployedLinkReferences": {}
}