{
  "_format": "hh-sol-artifact-1",
  "contractName": "TickLens",
  "sourceName": "contracts/len/TickLens.sol",
  "abi": [
    {
      "inputs": [
        {
          "internalType": "address",
          "name": "pool",
          "type": "address"
        },
        {
          "internalType": "int16",
          "name": "tickBitmapIndex",
          "type": "int16"
        }
      ],
      "name": "getPopulatedTicksInWord",
      "outputs": [
        {
          "components": [
            {
              "internalType": "int24",
              "name": "tick",
              "type": "int24"
            },
            {
              "internalType": "int128",
              "name": "liquidityNet",
              "type": "int128"
            },
            {
              "internalType": "uint128",
              "name": "liquidityGross",
              "type": "uint128"
            }
          ],
          "internalType": "struct ITickLens.PopulatedTick[]",
          "name": "populatedTicks",
          "type": "tuple[]"
        }
      ],
      "stateMutability": "view",
      "type": "function"
    }
  ],
  "bytecode": "0x608060405234801561001057600080fd5b50610529806100206000396000f3fe608060405234801561001057600080fd5b506004361061002b5760003560e01c8063351fb47814610030575b600080fd5b61004361003e366004610332565b610059565b6040516100509190610457565b60405180910390f35b60606000836001600160a01b0316635339c296846040518263ffffffff1660e01b815260040161008991906104bf565b60206040518083038186803b1580156100a157600080fd5b505afa1580156100b5573d6000803e3d6000fd5b505050506040513d601f19601f820116820180604052508101906100d9919061043f565b90506000805b610100811015610103576001811b8316156100fb576001909101905b6001016100df565b506000856001600160a01b031663d0c93a7c6040518163ffffffff1660e01b815260040160206040518083038186803b15801561013f57600080fd5b505afa158015610153573d6000803e3d6000fd5b505050506040513d601f19601f820116820180604052508101906101779190610370565b9050816001600160401b038111801561018f57600080fd5b506040519080825280602002602001820160405280156101c957816020015b6101b66102de565b8152602001906001900390816101ae5790505b50935060005b6101008110156102d4576001811b8416156102cc5760405163f30dba9360e01b8152600187900b60020b60081b820183029060009081906001600160a01b038b169063f30dba93906102259086906004016104cd565b6101006040518083038186803b15801561023e57600080fd5b505afa158015610252573d6000803e3d6000fd5b505050506040513d601f19601f820116820180604052508101906102769190610398565b5050505050509150915060405180606001604052808460020b815260200182600f0b8152602001836001600160801b0316815250888760019003975087815181106102bd57fe5b60200260200101819052505050505b6001016101cf565b5050505092915050565b604080516060810182526000808252602082018190529181019190915290565b8051801515811461030e57600080fd5b919050565b805161030e816104db565b805163ffffffff8116811461030e57600080fd5b60008060408385031215610344578182fd5b823561034f816104db565b91506020830135600181900b8114610365578182fd5b809150509250929050565b600060208284031215610381578081fd5b81518060020b8114610391578182fd5b9392505050565b600080600080600080600080610100898b0312156103b4578384fd5b88516001600160801b03811681146103ca578485fd5b80985050602089015180600f0b81146103e1578485fd5b80975050604089015195506060890151945060808901518060060b8114610406578485fd5b935061041460a08a01610313565b925061042260c08a0161031e565b915061043060e08a016102fe565b90509295985092959890939650565b600060208284031215610450578081fd5b5051919050565b602080825282518282018190526000919060409081850190868401855b828110156104b2578151805160020b855286810151600f0b878601528501516001600160801b03168585015260609093019290850190600101610474565b5091979650505050505050565b60019190910b815260200190565b60029190910b815260200190565b6001600160a01b03811681146104f057600080fd5b5056fea2646970667358221220b13d515bf5c32ffa5d6c55cb213a689b698eba0d57f5641a70c67f7045f43d8964736f6c63430007060033",
  "linkReferences": {},
  "deployedLinkReferences": {}
}