{
  "_format": "hh-sol-artifact-1",
  "contractName": "NonfungiblePositionManager",
  "sourceName": "contracts/NonfungiblePositionManager.sol",
  "abi": [
    {
      "inputs": [
        {
          "internalType": "address",
          "name": "_factory",
          "type": "address"
        },
        {
          "internalType": "address",
          "name": "_WETH9",
          "type": "address"
        },
        {
          "internalType": "address",
          "name": "_tokenDescriptor_",
          "type": "address"
        }
      ],
      "stateMutability": "nonpayable",
      "type": "constructor"
    },
    {
      "anonymous": false,
      "inputs": [
        {
          "indexed": true,
          "internalType": "address",
          "name": "owner",
          "type": "address"
        },
        {
          "indexed": true,
          "internalType": "address",
          "name": "approved",
          "type": "address"
        },
        {
          "indexed": true,
          "internalType": "uint256",
          "name": "tokenId",
          "type": "uint256"
        }
      ],
      "name": "Approval",
      "type": "event"
    },
    {
      "anonymous": false,
      "inputs": [
        {
          "indexed": true,
          "internalType": "address",
          "name": "owner",
          "type": "address"
        },
        {
          "indexed": true,
          "internalType": "address",
          "name": "operator",
          "type": "address"
        },
        {
          "indexed": false,
          "internalType": "bool",
          "name": "approved",
          "type": "bool"
        }
      ],
      "name": "ApprovalForAll",
      "type": "event"
    },
    {
      "anonymous": false,
      "inputs": [
        {
          "indexed": true,
          "internalType": "uint256",
          "name": "tokenId",
          "type": "uint256"
        },
        {
          "indexed": false,
          "internalType": "address",
          "name": "recipient",
          "type": "address"
        },
        {
          "indexed": false,
          "internalType": "uint256",
          "name": "amount0",
          "type": "uint256"
        },
        {
          "indexed": false,
          "internalType": "uint256",
          "name": "amount1",
          "type": "uint256"
        }
      ],
      "name": "Collect",
      "type": "event"
    },
    {
      "anonymous": false,
      "inputs": [
        {
          "indexed": true,
          "internalType": "uint256",
          "name": "tokenId",
          "type": "uint256"
        },
        {
          "indexed": false,
          "internalType": "uint128",
          "name": "liquidity",
          "type": "uint128"
        },
        {
          "indexed": false,
          "internalType": "uint256",
          "name": "amount0",
          "type": "uint256"
        },
        {
          "indexed": false,
          "internalType": "uint256",
          "name": "amount1",
          "type": "uint256"
        }
      ],
      "name": "DecreaseLiquidity",
      "type": "event"
    },
    {
      "anonymous": false,
      "inputs": [
        {
          "indexed": true,
          "internalType": "uint256",
          "name": "tokenId",
          "type": "uint256"
        },
        {
          "indexed": false,
          "internalType": "uint128",
          "name": "liquidity",
          "type": "uint128"
        },
        {
          "indexed": false,
          "internalType": "uint256",
          "name": "amount0",
          "type": "uint256"
        },
        {
          "indexed": false,
          "internalType": "uint256",
          "name": "amount1",
          "type": "uint256"
        }
      ],
      "name": "IncreaseLiquidity",
      "type": "event"
    },
    {
      "anonymous": false,
      "inputs": [
        {
          "indexed": true,
          "internalType": "address",
          "name": "from",
          "type": "address"
        },
        {
          "indexed": true,
          "internalType": "address",
          "name": "to",
          "type": "address"
        },
        {
          "indexed": true,
          "internalType": "uint256",
          "name": "tokenId",
          "type": "uint256"
        }
      ],
      "name": "Transfer",
      "type": "event"
    },
    {
      "inputs": [],
      "name": "DOMAIN_SEPARATOR",
      "outputs": [
        {
          "internalType": "bytes32",
          "name": "",
          "type": "bytes32"
        }
      ],
      "stateMutability": "view",
      "type": "function"
    },
    {
      "inputs": [],
      "name": "PERMIT_TYPEHASH",
      "outputs": [
        {
          "internalType": "bytes32",
          "name": "",
          "type": "bytes32"
        }
      ],
      "stateMutability": "view",
      "type": "function"
    },
    {
      "inputs": [],
      "name": "WETH9",
      "outputs": [
        {
          "internalType": "address",
          "name": "",
          "type": "address"
        }
      ],
      "stateMutability": "view",
      "type": "function"
    },
    {
      "inputs": [
        {
          "internalType": "address",
          "name": "to",
          "type": "address"
        },
        {
          "internalType": "uint256",
          "name": "tokenId",
          "type": "uint256"
        }
      ],
      "name": "approve",
      "outputs": [],
      "stateMutability": "nonpayable",
      "type": "function"
    },
    {
      "inputs": [
        {
          "internalType": "address",
          "name": "owner",
          "type": "address"
        }
      ],
      "name": "balanceOf",
      "outputs": [
        {
          "internalType": "uint256",
          "name": "",
          "type": "uint256"
        }
      ],
      "stateMutability": "view",
      "type": "function"
    },
    {
      "inputs": [],
      "name": "baseURI",
      "outputs": [
        {
          "internalType": "string",
          "name": "",
          "type": "string"
        }
      ],
      "stateMutability": "pure",
      "type": "function"
    },
    {
      "inputs": [
        {
          "internalType": "uint256",
          "name": "tokenId",
          "type": "uint256"
        }
      ],
      "name": "burn",
      "outputs": [],
      "stateMutability": "payable",
      "type": "function"
    },
    {
      "inputs": [
        {
          "components": [
            {
              "internalType": "uint256",
              "name": "tokenId",
              "type": "uint256"
            },
            {
              "internalType": "address",
              "name": "recipient",
              "type": "address"
            },
            {
              "internalType": "uint128",
              "name": "amount0Max",
              "type": "uint128"
            },
            {
              "internalType": "uint128",
              "name": "amount1Max",
              "type": "uint128"
            }
          ],
          "internalType": "struct INonfungiblePositionManager.CollectParams",
          "name": "params",
          "type": "tuple"
        }
      ],
      "name": "collect",
      "outputs": [
        {
          "internalType": "uint256",
          "name": "amount0",
          "type": "uint256"
        },
        {
          "internalType": "uint256",
          "name": "amount1",
          "type": "uint256"
        }
      ],
      "stateMutability": "payable",
      "type": "function"
    },
    {
      "inputs": [
        {
          "internalType": "address",
          "name": "token0",
          "type": "address"
        },
        {
          "internalType": "address",
          "name": "token1",
          "type": "address"
        },
        {
          "internalType": "uint24",
          "name": "fee",
          "type": "uint24"
        },
        {
          "internalType": "uint160",
          "name": "sqrtPriceX96",
          "type": "uint160"
        }
      ],
      "name": "createAndInitializePoolIfNecessary",
      "outputs": [
        {
          "internalType": "address",
          "name": "pool",
          "type": "address"
        }
      ],
      "stateMutability": "payable",
      "type": "function"
    },
    {
      "inputs": [
        {
          "components": [
            {
              "internalType": "uint256",
              "name": "tokenId",
              "type": "uint256"
            },
            {
              "internalType": "uint128",
              "name": "liquidity",
              "type": "uint128"
            },
            {
              "internalType": "uint256",
              "name": "amount0Min",
              "type": "uint256"
            },
            {
              "internalType": "uint256",
              "name": "amount1Min",
              "type": "uint256"
            },
            {
              "internalType": "uint256",
              "name": "deadline",
              "type": "uint256"
            }
          ],
          "internalType": "struct INonfungiblePositionManager.DecreaseLiquidityParams",
          "name": "params",
          "type": "tuple"
        }
      ],
      "name": "decreaseLiquidity",
      "outputs": [
        {
          "internalType": "uint256",
          "name": "amount0",
          "type": "uint256"
        },
        {
          "internalType": "uint256",
          "name": "amount1",
          "type": "uint256"
        }
      ],
      "stateMutability": "payable",
      "type": "function"
    },
    {
      "inputs": [],
      "name": "factory",
      "outputs": [
        {
          "internalType": "address",
          "name": "",
          "type": "address"
        }
      ],
      "stateMutability": "view",
      "type": "function"
    },
    {
      "inputs": [
        {
          "internalType": "uint256",
          "name": "tokenId",
          "type": "uint256"
        }
      ],
      "name": "getApproved",
      "outputs": [
        {
          "internalType": "address",
          "name": "",
          "type": "address"
        }
      ],
      "stateMutability": "view",
      "type": "function"
    },
    {
      "inputs": [
        {
          "components": [
            {
              "internalType": "uint256",
              "name": "tokenId",
              "type": "uint256"
            },
            {
              "internalType": "uint256",
              "name": "amount0Desired",
              "type": "uint256"
            },
            {
              "internalType": "uint256",
              "name": "amount1Desired",
              "type": "uint256"
            },
            {
              "internalType": "uint256",
              "name": "amount0Min",
              "type": "uint256"
            },
            {
              "internalType": "uint256",
              "name": "amount1Min",
              "type": "uint256"
            },
            {
              "internalType": "uint256",
              "name": "deadline",
              "type": "uint256"
            }
          ],
          "internalType": "struct INonfungiblePositionManager.IncreaseLiquidityParams",
          "name": "params",
          "type": "tuple"
        }
      ],
      "name": "increaseLiquidity",
      "outputs": [
        {
          "internalType": "uint128",
          "name": "liquidity",
          "type": "uint128"
        },
        {
          "internalType": "uint256",
          "name": "amount0",
          "type": "uint256"
        },
        {
          "internalType": "uint256",
          "name": "amount1",
          "type": "uint256"
        }
      ],
      "stateMutability": "payable",
      "type": "function"
    },
    {
      "inputs": [
        {
          "internalType": "address",
          "name": "owner",
          "type": "address"
        },
        {
          "internalType": "address",
          "name": "operator",
          "type": "address"
        }
      ],
      "name": "isApprovedForAll",
      "outputs": [
        {
          "internalType": "bool",
          "name": "",
          "type": "bool"
        }
      ],
      "stateMutability": "view",
      "type": "function"
    },
    {
      "inputs": [
        {
          "components": [
            {
              "internalType": "address",
              "name": "token0",
              "type": "address"
            },
            {
              "internalType": "address",
              "name": "token1",
              "type": "address"
            },
            {
              "internalType": "uint24",
              "name": "fee",
              "type": "uint24"
            },
            {
              "internalType": "int24",
              "name": "tickLower",
              "type": "int24"
            },
            {
              "internalType": "int24",
              "name": "tickUpper",
              "type": "int24"
            },
            {
              "internalType": "uint256",
              "name": "amount0Desired",
              "type": "uint256"
            },
            {
              "internalType": "uint256",
              "name": "amount1Desired",
              "type": "uint256"
            },
            {
              "internalType": "uint256",
              "name": "amount0Min",
              "type": "uint256"
            },
            {
              "internalType": "uint256",
              "name": "amount1Min",
              "type": "uint256"
            },
            {
              "internalType": "address",
              "name": "recipient",
              "type": "address"
            },
            {
              "internalType": "uint256",
              "name": "deadline",
              "type": "uint256"
            }
          ],
          "internalType": "struct INonfungiblePositionManager.MintParams",
          "name": "params",
          "type": "tuple"
        }
      ],
      "name": "mint",
      "outputs": [
        {
          "internalType": "uint256",
          "name": "tokenId",
          "type": "uint256"
        },
        {
          "internalType": "uint128",
          "name": "liquidity",
          "type": "uint128"
        },
        {
          "internalType": "uint256",
          "name": "amount0",
          "type": "uint256"
        },
        {
          "internalType": "uint256",
          "name": "amount1",
          "type": "uint256"
        }
      ],
      "stateMutability": "payable",
      "type": "function"
    },
    {
      "inputs": [
        {
          "internalType": "bytes[]",
          "name": "data",
          "type": "bytes[]"
        }
      ],
      "name": "multicall",
      "outputs": [
        {
          "internalType": "bytes[]",
          "name": "results",
          "type": "bytes[]"
        }
      ],
      "stateMutability": "payable",
      "type": "function"
    },
    {
      "inputs": [],
      "name": "name",
      "outputs": [
        {
          "internalType": "string",
          "name": "",
          "type": "string"
        }
      ],
      "stateMutability": "view",
      "type": "function"
    },
    {
      "inputs": [
        {
          "internalType": "uint256",
          "name": "tokenId",
          "type": "uint256"
        }
      ],
      "name": "ownerOf",
      "outputs": [
        {
          "internalType": "address",
          "name": "",
          "type": "address"
        }
      ],
      "stateMutability": "view",
      "type": "function"
    },
    {
      "inputs": [
        {
          "internalType": "address",
          "name": "spender",
          "type": "address"
        },
        {
          "internalType": "uint256",
          "name": "tokenId",
          "type": "uint256"
        },
        {
          "internalType": "uint256",
          "name": "deadline",
          "type": "uint256"
        },
        {
          "internalType": "uint8",
          "name": "v",
          "type": "uint8"
        },
        {
          "internalType": "bytes32",
          "name": "r",
          "type": "bytes32"
        },
        {
          "internalType": "bytes32",
          "name": "s",
          "type": "bytes32"
        }
      ],
      "name": "permit",
      "outputs": [],
      "stateMutability": "payable",
      "type": "function"
    },
    {
      "inputs": [
        {
          "internalType": "uint256",
          "name": "tokenId",
          "type": "uint256"
        }
      ],
      "name": "positions",
      "outputs": [
        {
          "internalType": "uint96",
          "name": "nonce",
          "type": "uint96"
        },
        {
          "internalType": "address",
          "name": "operator",
          "type": "address"
        },
        {
          "internalType": "address",
          "name": "token0",
          "type": "address"
        },
        {
          "internalType": "address",
          "name": "token1",
          "type": "address"
        },
        {
          "internalType": "uint24",
          "name": "fee",
          "type": "uint24"
        },
        {
          "internalType": "int24",
          "name": "tickLower",
          "type": "int24"
        },
        {
          "internalType": "int24",
          "name": "tickUpper",
          "type": "int24"
        },
        {
          "internalType": "uint128",
          "name": "liquidity",
          "type": "uint128"
        },
        {
          "internalType": "uint256",
          "name": "feeGrowthInside0LastX128",
          "type": "uint256"
        },
        {
          "internalType": "uint256",
          "name": "feeGrowthInside1LastX128",
          "type": "uint256"
        },
        {
          "internalType": "uint128",
          "name": "tokensOwed0",
          "type": "uint128"
        },
        {
          "internalType": "uint128",
          "name": "tokensOwed1",
          "type": "uint128"
        }
      ],
      "stateMutability": "view",
      "type": "function"
    },
    {
      "inputs": [],
      "name": "refundETH",
      "outputs": [],
      "stateMutability": "payable",
      "type": "function"
    },
    {
      "inputs": [
        {
          "internalType": "address",
          "name": "from",
          "type": "address"
        },
        {
          "internalType": "address",
          "name": "to",
          "type": "address"
        },
        {
          "internalType": "uint256",
          "name": "tokenId",
          "type": "uint256"
        }
      ],
      "name": "safeTransferFrom",
      "outputs": [],
      "stateMutability": "nonpayable",
      "type": "function"
    },
    {
      "inputs": [
        {
          "internalType": "address",
          "name": "from",
          "type": "address"
        },
        {
          "internalType": "address",
          "name": "to",
          "type": "address"
        },
        {
          "internalType": "uint256",
          "name": "tokenId",
          "type": "uint256"
        },
        {
          "internalType": "bytes",
          "name": "_data",
          "type": "bytes"
        }
      ],
      "name": "safeTransferFrom",
      "outputs": [],
      "stateMutability": "nonpayable",
      "type": "function"
    },
    {
      "inputs": [
        {
          "internalType": "address",
          "name": "token",
          "type": "address"
        },
        {
          "internalType": "uint256",
          "name": "value",
          "type": "uint256"
        },
        {
          "internalType": "uint256",
          "name": "deadline",
          "type": "uint256"
        },
        {
          "internalType": "uint8",
          "name": "v",
          "type": "uint8"
        },
        {
          "internalType": "bytes32",
          "name": "r",
          "type": "bytes32"
        },
        {
          "internalType": "bytes32",
          "name": "s",
          "type": "bytes32"
        }
      ],
      "name": "selfPermit",
      "outputs": [],
      "stateMutability": "payable",
      "type": "function"
    },
    {
      "inputs": [
        {
          "internalType": "address",
          "name": "token",
          "type": "address"
        },
        {
          "internalType": "uint256",
          "name": "nonce",
          "type": "uint256"
        },
        {
          "internalType": "uint256",
          "name": "expiry",
          "type": "uint256"
        },
        {
          "internalType": "uint8",
          "name": "v",
          "type": "uint8"
        },
        {
          "internalType": "bytes32",
          "name": "r",
          "type": "bytes32"
        },
        {
          "internalType": "bytes32",
          "name": "s",
          "type": "bytes32"
        }
      ],
      "name": "selfPermitAllowed",
      "outputs": [],
      "stateMutability": "payable",
      "type": "function"
    },
    {
      "inputs": [
        {
          "internalType": "address",
          "name": "token",
          "type": "address"
        },
        {
          "internalType": "uint256",
          "name": "nonce",
          "type": "uint256"
        },
        {
          "internalType": "uint256",
          "name": "expiry",
          "type": "uint256"
        },
        {
          "internalType": "uint8",
          "name": "v",
          "type": "uint8"
        },
        {
          "internalType": "bytes32",
          "name": "r",
          "type": "bytes32"
        },
        {
          "internalType": "bytes32",
          "name": "s",
          "type": "bytes32"
        }
      ],
      "name": "selfPermitAllowedIfNecessary",
      "outputs": [],
      "stateMutability": "payable",
      "type": "function"
    },
    {
      "inputs": [
        {
          "internalType": "address",
          "name": "token",
          "type": "address"
        },
        {
          "internalType": "uint256",
          "name": "value",
          "type": "uint256"
        },
        {
          "internalType": "uint256",
          "name": "deadline",
          "type": "uint256"
        },
        {
          "internalType": "uint8",
          "name": "v",
          "type": "uint8"
        },
        {
          "internalType": "bytes32",
          "name": "r",
          "type": "bytes32"
        },
        {
          "internalType": "bytes32",
          "name": "s",
          "type": "bytes32"
        }
      ],
      "name": "selfPermitIfNecessary",
      "outputs": [],
      "stateMutability": "payable",
      "type": "function"
    },
    {
      "inputs": [
        {
          "internalType": "address",
          "name": "operator",
          "type": "address"
        },
        {
          "internalType": "bool",
          "name": "approved",
          "type": "bool"
        }
      ],
      "name": "setApprovalForAll",
      "outputs": [],
      "stateMutability": "nonpayable",
      "type": "function"
    },
    {
      "inputs": [
        {
          "internalType": "bytes4",
          "name": "interfaceId",
          "type": "bytes4"
        }
      ],
      "name": "supportsInterface",
      "outputs": [
        {
          "internalType": "bool",
          "name": "",
          "type": "bool"
        }
      ],
      "stateMutability": "view",
      "type": "function"
    },
    {
      "inputs": [
        {
          "internalType": "address",
          "name": "token",
          "type": "address"
        },
        {
          "internalType": "uint256",
          "name": "amountMinimum",
          "type": "uint256"
        },
        {
          "internalType": "address",
          "name": "recipient",
          "type": "address"
        }
      ],
      "name": "sweepToken",
      "outputs": [],
      "stateMutability": "payable",
      "type": "function"
    },
    {
      "inputs": [],
      "name": "symbol",
      "outputs": [
        {
          "internalType": "string",
          "name": "",
          "type": "string"
        }
      ],
      "stateMutability": "view",
      "type": "function"
    },
    {
      "inputs": [
        {
          "internalType": "uint256",
          "name": "index",
          "type": "uint256"
        }
      ],
      "name": "tokenByIndex",
      "outputs": [
        {
          "internalType": "uint256",
          "name": "",
          "type": "uint256"
        }
      ],
      "stateMutability": "view",
      "type": "function"
    },
    {
      "inputs": [
        {
          "internalType": "address",
          "name": "owner",
          "type": "address"
        },
        {
          "internalType": "uint256",
          "name": "index",
          "type": "uint256"
        }
      ],
      "name": "tokenOfOwnerByIndex",
      "outputs": [
        {
          "internalType": "uint256",
          "name": "",
          "type": "uint256"
        }
      ],
      "stateMutability": "view",
      "type": "function"
    },
    {
      "inputs": [
        {
          "internalType": "uint256",
          "name": "tokenId",
          "type": "uint256"
        }
      ],
      "name": "tokenURI",
      "outputs": [
        {
          "internalType": "string",
          "name": "",
          "type": "string"
        }
      ],
      "stateMutability": "view",
      "type": "function"
    },
    {
      "inputs": [],
      "name": "totalSupply",
      "outputs": [
        {
          "internalType": "uint256",
          "name": "",
          "type": "uint256"
        }
      ],
      "stateMutability": "view",
      "type": "function"
    },
    {
      "inputs": [
        {
          "internalType": "address",
          "name": "from",
          "type": "address"
        },
        {
          "internalType": "address",
          "name": "to",
          "type": "address"
        },
        {
          "internalType": "uint256",
          "name": "tokenId",
          "type": "uint256"
        }
      ],
      "name": "transferFrom",
      "outputs": [],
      "stateMutability": "nonpayable",
      "type": "function"
    },
    {
      "inputs": [
        {
          "internalType": "uint256",
          "name": "amountMinimum",
          "type": "uint256"
        },
        {
          "internalType": "address",
          "name": "recipient",
          "type": "address"
        }
      ],
      "name": "unwrapWETH9",
      "outputs": [],
      "stateMutability": "payable",
      "type": "function"
    },
    {
      "inputs": [
        {
          "internalType": "uint256",
          "name": "amount0Owed",
          "type": "uint256"
        },
        {
          "internalType": "uint256",
          "name": "amount1Owed",
          "type": "uint256"
        },
        {
          "internalType": "bytes",
          "name": "data",
          "type": "bytes"
        }
      ],
      "name": "zebraV3MintCallback",
      "outputs": [],
      "stateMutability": "nonpayable",
      "type": "function"
    },
    {
      "stateMutability": "payable",
      "type": "receive"
    }
  ],
  "bytecode": "0x610120604052600d80546001600160b01b0319166001176001600160b01b0316600160b01b1790553480156200003457600080fd5b5060405162005cb638038062005cb68339810160408190526200005791620002da565b82826040518060400160405280601381526020017f5a6562726120506f736974696f6e73204e465400000000000000000000000000815250604051806040016040528060098152602001685a454252412d504f5360b81b815250604051806040016040528060018152602001603160f81b8152508282620000e56301ffc9a760e01b6200018c60201b60201c565b8151620000fa90600690602085019062000211565b5080516200011090600790602084019062000211565b50620001236380ac58cd60e01b6200018c565b62000135635b5e139f60e01b6200018c565b6200014763780e9d6360e01b6200018c565b50508251602093840120608052805192019190912060a052506001600160601b0319606092831b811660c05290821b811660e05291901b166101005250620003239050565b6001600160e01b03198082161415620001ec576040805162461bcd60e51b815260206004820152601c60248201527f4552433136353a20696e76616c696420696e7465726661636520696400000000604482015290519081900360640190fd5b6001600160e01b0319166000908152602081905260409020805460ff19166001179055565b828054600181600116156101000203166002900490600052602060002090601f01602090048101928262000249576000855562000294565b82601f106200026457805160ff191683800117855562000294565b8280016001018555821562000294579182015b828111156200029457825182559160200191906001019062000277565b50620002a2929150620002a6565b5090565b5b80821115620002a25760008155600101620002a7565b80516001600160a01b0381168114620002d557600080fd5b919050565b600080600060608486031215620002ef578283fd5b620002fa84620002bd565b92506200030a60208501620002bd565b91506200031a60408501620002bd565b90509250925092565b60805160a05160c05160601c60e05160601c6101005160601c61590e620003a8600039806127a05250806101c95280611575528061166052806116e85280613937528061397d52806139f15250806109955280610cb55280610d7c52806120b052806127535280612abc52806132bf525080611375525080611354525061590e6000f3fe6080604052600436106101b95760003560e01c806301ffc9a71461022e57806306fdde0314610264578063081812fc14610286578063095ea7b3146102b35780630c49ccbe146102d357806312210e8a146102f457806313ead562146102fc57806318160ddd1461030f578063219f5d171461033157806323b872dd146103535780632f745c591461037357806330adf81f146103935780633644e515146103a857806342842e0e146103bd57806342966c68146103dd5780634659a494146103f057806349404b7c146104035780634aa4a4fc146104165780634f6ccce71461042b5780636352211e1461044b5780636c0360eb1461046b57806370a08231146104805780637ac2ff7b146104a057806388316456146104b3578063888995e9146104d657806395d89b41146104f657806399fbab881461050b578063a22cb46514610543578063a4a78f0c14610563578063ac9650d814610576578063b88d4fde14610596578063c2e3140a146105b6578063c45a0155146105c9578063c87b56dd146105de578063df2ab5bb146105fe578063e985e9c514610611578063f3995c6714610631578063fc6f78651461064457610229565b3661022957336001600160a01b037f00000000000000000000000000000000000000000000000000000000000000001614610227576040805162461bcd60e51b81526020600482015260096024820152684e6f7420574554483960b81b604482015290519081900360640190fd5b005b600080fd5b34801561023a57600080fd5b5061024e610249366004614d92565b610657565b60405161025b91906152d3565b60405180910390f35b34801561027057600080fd5b5061027961067a565b60405161025b9190615326565b34801561029257600080fd5b506102a66102a136600461508a565b610710565b60405161025b91906151b3565b3480156102bf57600080fd5b506102276102ce366004614c5d565b610763565b6102e66102e1366004614e56565b610839565b60405161025b9291906154ad565b610227610c81565b6102a661030a366004614af1565b610c93565b34801561031b57600080fd5b50610324610f87565b60405161025b91906152de565b61034461033f366004614e67565b610f98565b60405161025b93929190615468565b34801561035f57600080fd5b5061022761036e366004614b4a565b61129b565b34801561037f57600080fd5b5061032461038e366004614c5d565b6112f2565b34801561039f57600080fd5b5061032461131d565b3480156103b457600080fd5b5061032461132f565b3480156103c957600080fd5b506102276103d8366004614b4a565b6113ed565b6102276103eb36600461508a565b611408565b6102276103fe366004614cc9565b6114d7565b6102276104113660046150a2565b611571565b34801561042257600080fd5b506102a66116e6565b34801561043757600080fd5b5061032461044636600461508a565b61170a565b34801561045757600080fd5b506102a661046636600461508a565b611720565b34801561047757600080fd5b50610279611748565b34801561048c57600080fd5b5061032461049b366004614a9d565b61174d565b6102276104ae366004614cc9565b6117b5565b6104c66104c1366004614f22565b611b95565b60405161025b9493929190615489565b3480156104e257600080fd5b506102276104f13660046150e9565b61209b565b34801561050257600080fd5b50610279612119565b34801561051757600080fd5b5061052b61052636600461508a565b61217a565b60405161025b9c9b9a999897969594939291906154bb565b34801561054f57600080fd5b5061022761055e366004614c30565b61238b565b610227610571366004614cc9565b61248c565b610589610584366004614d24565b612525565b60405161025b9190615273565b3480156105a257600080fd5b506102276105b1366004614b8a565b612664565b6102276105c4366004614cc9565b6126c2565b3480156105d557600080fd5b506102a6612751565b3480156105ea57600080fd5b506102796105f936600461508a565b612775565b61022761060c366004614c88565b61282b565b34801561061d57600080fd5b5061024e61062c366004614ab9565b612903565b61022761063f366004614cc9565b612931565b6102e6610652366004614e3f565b6129a3565b6001600160e01b0319811660009081526020819052604090205460ff165b919050565b60068054604080516020601f60026000196101006001881615020190951694909404938401819004810282018101909252828152606093909290918301828280156107065780601f106106db57610100808354040283529160200191610706565b820191906000526020600020905b8154815290600101906020018083116106e957829003601f168201915b5050505050905090565b600061071b82612e6e565b6107405760405162461bcd60e51b81526004016107379061535f565b60405180910390fd5b506000908152600c6020526040902054600160601b90046001600160a01b031690565b600061076e82611720565b9050806001600160a01b0316836001600160a01b031614156107c15760405162461bcd60e51b81526004018080602001828103825260218152602001806158876021913960400191505060405180910390fd5b806001600160a01b03166107d3612e7b565b6001600160a01b031614806107ef57506107ef8161062c612e7b565b61082a5760405162461bcd60e51b81526004018080602001828103825260388152602001806157516038913960400191505060405180910390fd5b6108348383612e7f565b505050565b60008082356108483382612ef5565b6108645760405162461bcd60e51b815260040161073790615339565b836080013580610872612f91565b11156108bb576040805162461bcd60e51b8152602060048201526013602482015272151c985b9cd858dd1a5bdb881d1bdbc81bdb19606a1b604482015290519081900360640190fd5b60006108cd6040870160208801614f34565b6001600160801b0316116108e057600080fd5b84356000908152600c602090815260409182902060018101549092600160801b9091046001600160801b03169161091b918901908901614f34565b6001600160801b0316816001600160801b0316101561093957600080fd5b6001828101546001600160501b03166000908152600b60209081526040808320815160608101835281546001600160a01b039081168252919095015490811692850192909252600160a01b90910462ffffff16908301526109ba7f000000000000000000000000000000000000000000000000000000000000000083612f95565b60018501549091506001600160a01b0382169063a34123a790600160501b8104600290810b91600160681b9004900b6109f960408e0160208f01614f34565b6040518463ffffffff1660e01b8152600401610a1793929190615300565b6040805180830381600087803b158015610a3057600080fd5b505af1158015610a44573d6000803e3d6000fd5b505050506040513d601f19601f82011682018060405250810190610a6891906150c6565b909850965060408901358810801590610a85575088606001358710155b610aa15760405162461bcd60e51b8152600401610737906153ab565b6001840154600090610aca903090600160501b8104600290810b91600160681b9004900b613074565b9050600080836001600160a01b031663514ea4bf846040518263ffffffff1660e01b8152600401610afb91906152de565b60a06040518083038186803b158015610b1357600080fd5b505afa158015610b27573d6000803e3d6000fd5b505050506040513d601f19601f82011682018060405250810190610b4b9190614f7e565b50509250925050610b7087600201548303876001600160801b0316600160801b6130c9565b6004880180546001600160801b03198116928e016001600160801b039182160181169290921790556003880154610bb191908303908816600160801b6130c9565b6004880180546001600160801b03808216938e01600160801b9283900482160116029190911790556002870182905560038701819055610bf760408d0160208e01614f34565b86038760010160106101000a8154816001600160801b0302191690836001600160801b031602179055508b600001357f26f6a048ee9138f2c0ce266f322cb99228e8d619ae2bff30c67f8dcf9d2377b48d6020016020810190610c5a9190614f34565b8d8d604051610c6b93929190615468565b60405180910390a2505050505050505050915091565b4715610c9157610c913347613178565b565b6000836001600160a01b0316856001600160a01b031610610cb357600080fd5b7f00000000000000000000000000000000000000000000000000000000000000006001600160a01b0316631698ee828686866040518463ffffffff1660e01b815260040180846001600160a01b03168152602001836001600160a01b031681526020018262ffffff168152602001935050505060206040518083038186803b158015610d3e57600080fd5b505afa158015610d52573d6000803e3d6000fd5b505050506040513d6020811015610d6857600080fd5b505190506001600160a01b038116610e9e577f00000000000000000000000000000000000000000000000000000000000000006001600160a01b031663a16712958686866040518463ffffffff1660e01b815260040180846001600160a01b03168152602001836001600160a01b031681526020018262ffffff1681526020019350505050602060405180830381600087803b158015610e0757600080fd5b505af1158015610e1b573d6000803e3d6000fd5b505050506040513d6020811015610e3157600080fd5b50516040805163f637731d60e01b81526001600160a01b03858116600483015291519293509083169163f637731d9160248082019260009290919082900301818387803b158015610e8157600080fd5b505af1158015610e95573d6000803e3d6000fd5b50505050610f7f565b6000816001600160a01b0316633850c7bd6040518163ffffffff1660e01b815260040160e06040518083038186803b158015610ed957600080fd5b505afa158015610eed573d6000803e3d6000fd5b505050506040513d60e0811015610f0357600080fd5b505190506001600160a01b038116610f7d57816001600160a01b031663f637731d846040518263ffffffff1660e01b815260040180826001600160a01b03168152602001915050600060405180830381600087803b158015610f6457600080fd5b505af1158015610f78573d6000803e3d6000fd5b505050505b505b949350505050565b6000610f936002613267565b905090565b60008060008360a0013580610fab612f91565b1115610ff4576040805162461bcd60e51b8152602060048201526013602482015272151c985b9cd858dd1a5bdb881d1bdbc81bdb19606a1b604482015290519081900360640190fd5b84356000908152600c602090815260408083206001808201546001600160501b0381168652600b855283862084516060808201875282546001600160a01b039081168352929094015480831682890190815262ffffff600160a01b9092048216838901908152885161014081018a528451861681529151909416818a0152925116828701523082850152600160501b8304600290810b810b608080850191909152600160681b909404810b900b60a0830152958c013560c0820152938b013560e0850152908a013561010084015289013561012083015292906110d690613272565b6001870154939a5091985096509150600090611109903090600160501b8104600290810b91600160681b9004900b613074565b9050600080836001600160a01b031663514ea4bf846040518263ffffffff1660e01b815260040161113a91906152de565b60a06040518083038186803b15801561115257600080fd5b505afa158015611166573d6000803e3d6000fd5b505050506040513d601f19601f8201168201806040525081019061118a9190614f7e565b505092509250506111c6866002015483038760010160109054906101000a90046001600160801b03166001600160801b0316600160801b6130c9565b6004870180546001600160801b0380821690930183166001600160801b03199091161790556003870154600188015461120d9291840391600160801b9182900416906130c9565b6004870180546001600160801b03600160801b80830482169094018116840291811691909117909155600288018490556003880183905560018801805483810483168e018316909302929091169190911790556040518b35906000805160206157fe83398151915290611285908d908d908d90615468565b60405180910390a2505050505050509193909250565b6112ac6112a6612e7b565b82612ef5565b6112e75760405162461bcd60e51b81526004018080602001828103825260318152602001806158a86031913960400191505060405180910390fd5b6108348383836134ad565b6001600160a01b038216600090815260016020526040812061131490836135e7565b90505b92915050565b60008051602061584783398151915281565b60007f8b73c3c69bb8fe3d512ecc4cf759cc79239f7b179b0ffacaa9a75d522b39400f7f00000000000000000000000000000000000000000000000000000000000000007f000000000000000000000000000000000000000000000000000000000000000061139c6135f3565b3060405160200180868152602001858152602001848152602001838152602001826001600160a01b031681526020019550505050505060405160208183030381529060405280519060200120905090565b61083483838360405180602001604052806000815250612664565b806114133382612ef5565b61142f5760405162461bcd60e51b815260040161073790615339565b6000828152600c602052604090206001810154600160801b90046001600160801b031615801561146a575060048101546001600160801b0316155b801561148857506004810154600160801b90046001600160801b0316155b6114a45760405162461bcd60e51b815260040161073790615403565b6000838152600c6020526040812081815560018101829055600281018290556003810182905560040155610834836135f7565b604080516323f2ebc360e21b815233600482015230602482015260448101879052606481018690526001608482015260ff851660a482015260c4810184905260e4810183905290516001600160a01b03881691638fcbaf0c9161010480830192600092919082900301818387803b15801561155157600080fd5b505af1158015611565573d6000803e3d6000fd5b50505050505050505050565b60007f00000000000000000000000000000000000000000000000000000000000000006001600160a01b03166370a08231306040518263ffffffff1660e01b815260040180826001600160a01b0316815260200191505060206040518083038186803b1580156115e057600080fd5b505afa1580156115f4573d6000803e3d6000fd5b505050506040513d602081101561160a57600080fd5b5051905082811015611658576040805162461bcd60e51b8152602060048201526012602482015271496e73756666696369656e7420574554483960701b604482015290519081900360640190fd5b8015610834577f00000000000000000000000000000000000000000000000000000000000000006001600160a01b0316632e1a7d4d826040518263ffffffff1660e01b815260040180828152602001915050600060405180830381600087803b1580156116c457600080fd5b505af11580156116d8573d6000803e3d6000fd5b505050506108348282613178565b7f000000000000000000000000000000000000000000000000000000000000000081565b6000806117186002846136b2565b509392505050565b6000611317826040518060600160405280602981526020016157b360299139600291906136d0565b606090565b60006001600160a01b0382166117945760405162461bcd60e51b815260040180806020018281038252602a815260200180615789602a913960400191505060405180910390fd5b6001600160a01b038216600090815260016020526040902061131790613267565b836117be612f91565b1115611802576040805162461bcd60e51b815260206004820152600e60248201526d14195c9b5a5d08195e1c1a5c995960921b604482015290519081900360640190fd5b600061180c61132f565b6000805160206158478339815191528888611826816136dd565b604080516020808201969096526001600160a01b03909416848201526060840192909252608083015260a08083018a90528151808403909101815260c08301825280519084012061190160f01b60e084015260e2830194909452610102808301949094528051808303909401845261012290910190528151910120905060006118ae87611720565b9050806001600160a01b0316886001600160a01b031614156119015760405162461bcd60e51b81526004018080602001828103825260278152602001806156b46027913960400191505060405180910390fd5b61190a81613712565b15611a72576040805160208082018790528183018690526001600160f81b031960f889901b1660608301528251604181840301815260618301808552630b135d3f60e11b90526065830186815260858401948552815160a585015281516001600160a01b03871695631626ba7e958995919260c59091019185019080838360005b838110156119a357818101518382015260200161198b565b50505050905090810190601f1680156119d05780820380516001836020036101000a031916815260200191505b50935050505060206040518083038186803b1580156119ee57600080fd5b505afa158015611a02573d6000803e3d6000fd5b505050506040513d6020811015611a1857600080fd5b50516001600160e01b031916630b135d3f60e11b14611a6d576040805162461bcd60e51b815260206004820152600c60248201526b155b985d5d1a1bdc9a5e995960a21b604482015290519081900360640190fd5b611b81565b600060018387878760405160008152602001604052604051808581526020018460ff1681526020018381526020018281526020019450505050506020604051602081039080840390855afa158015611ace573d6000803e3d6000fd5b5050604051601f1901519150506001600160a01b038116611b2a576040805162461bcd60e51b8152602060048201526011602482015270496e76616c6964207369676e617475726560781b604482015290519081900360640190fd5b816001600160a01b0316816001600160a01b031614611b7f576040805162461bcd60e51b815260206004820152600c60248201526b155b985d5d1a1bdc9a5e995960a21b604482015290519081900360640190fd5b505b611b8b8888612e7f565b5050505050505050565b60008060008084610140013580611baa612f91565b1115611bf3576040805162461bcd60e51b8152602060048201526013602482015272151c985b9cd858dd1a5bdb881d1bdbc81bdb19606a1b604482015290519081900360640190fd5b604080516101408101909152600090611cbf9080611c1460208b018b614a9d565b6001600160a01b03168152602001896020016020810190611c359190614a9d565b6001600160a01b03168152602001611c5360608b0160408c01615070565b62ffffff168152306020820152604001611c7360808b0160608c01614dba565b60020b8152602001611c8b60a08b0160808c01614dba565b60020b81526020018960a0013581526020018960c0013581526020018960e001358152602001896101000135815250613272565b92975090955093509050611d0c611cde61014089016101208a01614a9d565b600d80546001600160b01b0319811660016001600160b01b0392831690810190921617909155975087613718565b6000611d3730611d2260808b0160608c01614dba565b611d3260a08c0160808d01614dba565b613074565b9050600080836001600160a01b031663514ea4bf846040518263ffffffff1660e01b8152600401611d6891906152de565b60a06040518083038186803b158015611d8057600080fd5b505afa158015611d94573d6000803e3d6000fd5b505050506040513d601f19601f82011682018060405250810190611db89190614f7e565b505092509250506000611e318560405180606001604052808e6000016020810190611de39190614a9d565b6001600160a01b031681526020018e6020016020810190611e049190614a9d565b6001600160a01b031681526020018e6040016020810190611e259190615070565b62ffffff169052613833565b905060405180610140016040528060006001600160601b0316815260200160006001600160a01b03168152602001826001600160501b031681526020018c6060016020810190611e819190614dba565b60020b8152602001611e9960a08e0160808f01614dba565b60020b81526020018a6001600160801b0316815260200184815260200183815260200160006001600160801b0316815260200160006001600160801b0316815250600c60008c815260200190815260200160002060008201518160000160006101000a8154816001600160601b0302191690836001600160601b03160217905550602082015181600001600c6101000a8154816001600160a01b0302191690836001600160a01b0316021790555060408201518160010160006101000a8154816001600160501b0302191690836001600160501b03160217905550606082015181600101600a6101000a81548162ffffff021916908360020b62ffffff160217905550608082015181600101600d6101000a81548162ffffff021916908360020b62ffffff16021790555060a08201518160010160106101000a8154816001600160801b0302191690836001600160801b0316021790555060c0820151816002015560e082015181600301556101008201518160040160006101000a8154816001600160801b0302191690836001600160801b031602179055506101208201518160040160106101000a8154816001600160801b0302191690836001600160801b03160217905550905050896000805160206157fe8339815191528a8a8a60405161208693929190615468565b60405180910390a25050505050509193509193565b60006120a982840184614e78565b90506120d97f00000000000000000000000000000000000000000000000000000000000000008260000151613912565b5084156120f45780515160208201516120f491903388613935565b83156121125761211281600001516020015182602001513387613935565b5050505050565b60078054604080516020601f60026000196101006001881615020190951694909404938401819004810282018101909252828152606093909290918301828280156107065780601f106106db57610100808354040283529160200191610706565b6000818152600c6020908152604080832081516101408101835281546001600160601b03811682526001600160a01b03600160601b909104169381019390935260018101546001600160501b038116928401839052600160501b8104600290810b810b810b6060860152600160681b8204810b810b810b60808601526001600160801b03600160801b92839004811660a08701529083015460c0860152600383015460e08601526004909201548083166101008601520416610120830152829182918291829182918291829182918291829182919061226b5760405162461bcd60e51b8152600401610737906153d9565b6000600b600083604001516001600160501b03166001600160501b031681526020019081526020016000206040518060600160405290816000820160009054906101000a90046001600160a01b03166001600160a01b03166001600160a01b031681526020016001820160009054906101000a90046001600160a01b03166001600160a01b03166001600160a01b031681526020016001820160149054906101000a900462ffffff1662ffffff1662ffffff1681525050905081600001518260200151826000015183602001518460400151866060015187608001518860a001518960c001518a60e001518b61010001518c61012001519d509d509d509d509d509d509d509d509d509d509d509d50505091939597999b5091939597999b565b612393612e7b565b6001600160a01b0316826001600160a01b031614156123f5576040805162461bcd60e51b815260206004820152601960248201527822a9219b99189d1030b8383937bb32903a379031b0b63632b960391b604482015290519081900360640190fd5b8060056000612402612e7b565b6001600160a01b03908116825260208083019390935260409182016000908120918716808252919093529120805460ff191692151592909217909155612446612e7b565b6001600160a01b03167f17307eab39ab6107e8899845ad3d59bd9653f200f220920489ca2b5937696c318360405180821515815260200191505060405180910390a35050565b60408051636eb1769f60e11b81523360048201523060248201529051600019916001600160a01b0389169163dd62ed3e91604480820192602092909190829003018186803b1580156124dd57600080fd5b505afa1580156124f1573d6000803e3d6000fd5b505050506040513d602081101561250757600080fd5b5051101561251d5761251d8686868686866114d7565b505050505050565b6060816001600160401b038111801561253d57600080fd5b5060405190808252806020026020018201604052801561257157816020015b606081526020019060019003908161255c5790505b50905060005b8281101561265d576000803086868581811061258f57fe5b90506020028101906125a19190615555565b6040516125af9291906151a3565b600060405180830381855af49150503d80600081146125ea576040519150601f19603f3d011682016040523d82523d6000602084013e6125ef565b606091505b50915091508161263b5760448151101561260857600080fd5b600481019050808060200190518101906126229190614dd6565b60405162461bcd60e51b81526004016107379190615326565b8084848151811061264857fe5b60209081029190910101525050600101612577565b5092915050565b61267561266f612e7b565b83612ef5565b6126b05760405162461bcd60e51b81526004018080602001828103825260318152602001806158a86031913960400191505060405180910390fd5b6126bc84848484613ac5565b50505050565b60408051636eb1769f60e11b8152336004820152306024820152905186916001600160a01b0389169163dd62ed3e91604480820192602092909190829003018186803b15801561271157600080fd5b505afa158015612725573d6000803e3d6000fd5b505050506040513d602081101561273b57600080fd5b5051101561251d5761251d868686868686612931565b7f000000000000000000000000000000000000000000000000000000000000000081565b606061278082612e6e565b61278957600080fd5b60405163e9dc637560e01b81526001600160a01b037f0000000000000000000000000000000000000000000000000000000000000000169063e9dc6375906127d790309086906004016152e7565b60006040518083038186803b1580156127ef57600080fd5b505afa158015612803573d6000803e3d6000fd5b505050506040513d6000823e601f3d908101601f191682016040526113179190810190614dd6565b6000836001600160a01b03166370a08231306040518263ffffffff1660e01b815260040180826001600160a01b0316815260200191505060206040518083038186803b15801561287a57600080fd5b505afa15801561288e573d6000803e3d6000fd5b505050506040513d60208110156128a457600080fd5b50519050828110156128f2576040805162461bcd60e51b815260206004820152601260248201527124b739bab33334b1b4b2b73a103a37b5b2b760711b604482015290519081900360640190fd5b80156126bc576126bc848383613b17565b6001600160a01b03918216600090815260056020908152604080832093909416825291909152205460ff1690565b6040805163d505accf60e01b8152336004820152306024820152604481018790526064810186905260ff8516608482015260a4810184905260c4810183905290516001600160a01b0388169163d505accf9160e480830192600092919082900301818387803b15801561155157600080fd5b60008082356129b23382612ef5565b6129ce5760405162461bcd60e51b815260040161073790615339565b60006129e06060860160408701614f34565b6001600160801b03161180612a0d57506000612a026080860160608701614f34565b6001600160801b0316115b612a1657600080fd5b600080612a296040870160208801614a9d565b6001600160a01b031614612a4c57612a476040860160208701614a9d565b612a4e565b305b85356000908152600c602090815260408083206001808201546001600160501b03168552600b8452828520835160608101855281546001600160a01b039081168252919092015490811694820194909452600160a01b90930462ffffff169183019190915292935090612ae17f000000000000000000000000000000000000000000000000000000000000000083612f95565b600484015460018501549192506001600160801b0380821692600160801b9283900482169290041615612cd757600185015460405163a34123a760e01b81526001600160a01b0385169163a34123a791612b5891600160501b8104600290810b92600160681b909204900b90600090600401615300565b6040805180830381600087803b158015612b7157600080fd5b505af1158015612b85573d6000803e3d6000fd5b505050506040513d601f19601f82011682018060405250810190612ba991906150c6565b5050600185015460009081906001600160a01b0386169063514ea4bf90612be7903090600160501b8104600290810b91600160681b9004900b613074565b6040518263ffffffff1660e01b8152600401612c0391906152de565b60a06040518083038186803b158015612c1b57600080fd5b505afa158015612c2f573d6000803e3d6000fd5b505050506040513d601f19601f82011682018060405250810190612c539190614f7e565b50509250925050612c8f876002015483038860010160109054906101000a90046001600160801b03166001600160801b0316600160801b6130c9565b84019350612cc8876003015482038860010160109054906101000a90046001600160801b03166001600160801b0316600160801b6130c9565b60028801929092556003870155015b6000806001600160801b038416612cf460608e0160408f01614f34565b6001600160801b031611612d1757612d1260608d0160408e01614f34565b612d19565b835b836001600160801b03168d6060016020810190612d369190614f34565b6001600160801b031611612d5957612d5460808e0160608f01614f34565b612d5b565b835b60018901546040516309e3d67b60e31b81529294509092506001600160a01b03871691634f1eb3d891612dae918c91600160501b8104600290810b92600160681b909204900b908890889060040161520c565b6040805180830381600087803b158015612dc757600080fd5b505af1158015612ddb573d6000803e3d6000fd5b505050506040513d601f19601f82011682018060405250810190612dff9190614f50565b6004890180546001600160801b03196001600160801b03918216600160801b878a0384160217168689038216179091556040519281169d50169a508c35907f40d0efd1a53d60ecbf40971b9daf7dc90178c3aadc7aab1765632738fa8b8f0190610c6b908b9086908690615249565b6000611317600283613c5e565b3390565b6000818152600c6020526040902080546001600160601b0316600160601b6001600160a01b038516908102919091179091558190612ebc82611720565b6001600160a01b03167f8c5be1e5ebec7d5bd14f71427d1e84f3dd0314c0f7b2291e5b200ac8c7c3b92560405160405180910390a45050565b6000612f0082612e6e565b612f3b5760405162461bcd60e51b815260040180806020018281038252602c815260200180615725602c913960400191505060405180910390fd5b6000612f4683611720565b9050806001600160a01b0316846001600160a01b03161480612f815750836001600160a01b0316612f7684610710565b6001600160a01b0316145b80610f7f5750610f7f8185612903565b4290565b600081602001516001600160a01b031682600001516001600160a01b031610612fbd57600080fd5b50805160208083015160409384015184516001600160a01b0394851681850152939091168385015262ffffff166060808401919091528351808403820181526080840185528051908301206001600160f81b031960a085015294901b6001600160601b03191660a183015260b58201939093527fcf0b3414328c2bd327a4f093539d0d7d82fb94f893a2965c75cb470289cb5ac760d5808301919091528251808303909101815260f5909101909152805191012090565b604080516001600160601b0319606086901b16602080830191909152600285810b60e890811b60348501529085900b901b60378301528251601a818403018152603a90920190925280519101205b9392505050565b60008080600019858709868602925082811090839003039050806130ff57600084116130f457600080fd5b5082900490506130c2565b80841161310b57600080fd5b6000848688096000868103871696879004966002600389028118808a02820302808a02820302808a02820302808a02820302808a02820302808a02909103029181900381900460010186841190950394909402919094039290920491909117919091029150509392505050565b604080516000808252602082019092526001600160a01b0384169083906040518082805190602001908083835b602083106131c45780518252601f1990920191602091820191016131a5565b6001836020036101000a03801982511681845116808217855250505050505090500191505060006040518083038185875af1925050503d8060008114613226576040519150601f19603f3d011682016040523d82523d6000602084013e61322b565b606091505b5050905080610834576040805162461bcd60e51b815260206004820152600360248201526253544560e81b604482015290519081900360640190fd5b600061131782613c6a565b6000806000806000604051806060016040528087600001516001600160a01b0316815260200187602001516001600160a01b03168152602001876040015162ffffff1681525090506132e47f000000000000000000000000000000000000000000000000000000000000000082612f95565b91506000826001600160a01b0316633850c7bd6040518163ffffffff1660e01b815260040160e06040518083038186803b15801561332157600080fd5b505afa158015613335573d6000803e3d6000fd5b505050506040513d601f19601f820116820180604052508101906133599190614fdf565b505050505050905060006133708860800151613c6e565b905060006133818960a00151613c6e565b90506133988383838c60c001518d60e00151613f95565b9750505050816001600160a01b0316633c8a7d8d876060015188608001518960a00151896040518060400160405280888152602001336001600160a01b03168152506040516020016133ea9190615428565b6040516020818303038152906040526040518663ffffffff1660e01b81526004016134199594939291906151c7565b6040805180830381600087803b15801561343257600080fd5b505af1158015613446573d6000803e3d6000fd5b505050506040513d601f19601f8201168201806040525081019061346a91906150c6565b6101008801519195509350841080159061348957508561012001518310155b6134a55760405162461bcd60e51b8152600401610737906153ab565b509193509193565b826001600160a01b03166134c082611720565b6001600160a01b0316146135055760405162461bcd60e51b815260040180806020018281038252602981526020018061581e6029913960400191505060405180910390fd5b6001600160a01b03821661354a5760405162461bcd60e51b81526004018080602001828103825260248152602001806156db6024913960400191505060405180910390fd5b613555838383610834565b613560600082612e7f565b6001600160a01b03831660009081526001602052604090206135829082614059565b506001600160a01b03821660009081526001602052604090206135a59082614065565b506135b260028284614071565b5080826001600160a01b0316846001600160a01b031660008051602061586783398151915260405160405180910390a4505050565b60006113148383614087565b4690565b600061360282611720565b905061361081600084610834565b61361b600083612e7f565b600082815260086020526040902054600260001961010060018416150201909116041561365957600082815260086020526040812061365991614a0d565b6001600160a01b038116600090815260016020526040902061367b9083614059565b506136876002836140eb565b5060405182906000906001600160a01b03841690600080516020615867833981519152908390a45050565b60008080806136c186866140f7565b909450925050505b9250929050565b6000610f7f848484614172565b6000908152600c6020526040902080546001600160601b0319811660016001600160601b039283169081019092161790915590565b3b151590565b6001600160a01b038216613773576040805162461bcd60e51b815260206004820181905260248201527f4552433732313a206d696e7420746f20746865207a65726f2061646472657373604482015290519081900360640190fd5b61377c81612e6e565b156137cd576040805162461bcd60e51b815260206004820152601c60248201527b115490cdcc8c4e881d1bdad95b88185b1c9958591e481b5a5b9d195960221b604482015290519081900360640190fd5b6137d960008383610834565b6001600160a01b03821660009081526001602052604090206137fb9082614065565b5061380860028284614071565b5060405181906001600160a01b03841690600090600080516020615867833981519152908290a45050565b6001600160a01b0382166000908152600a60205260409020546001600160501b0316806113175750600d805460016001600160501b03600160b01b8084048216838101909216026001600160b01b03909316929092179092556001600160a01b038085166000908152600a6020908152604080832080546001600160501b03191686179055848352600b825291829020865181549085166001600160a01b031991821617825591870151950180549287015162ffffff16600160a01b0262ffffff60a01b19969094169290911691909117939093161790915592915050565b600061391e8383612f95565b9050336001600160a01b0382161461131757600080fd5b7f00000000000000000000000000000000000000000000000000000000000000006001600160a01b0316846001600160a01b03161480156139765750804710155b15613a98577f00000000000000000000000000000000000000000000000000000000000000006001600160a01b031663d0e30db0826040518263ffffffff1660e01b81526004016000604051808303818588803b1580156139d657600080fd5b505af11580156139ea573d6000803e3d6000fd5b50505050507f00000000000000000000000000000000000000000000000000000000000000006001600160a01b031663a9059cbb83836040518363ffffffff1660e01b815260040180836001600160a01b0316815260200182815260200192505050602060405180830381600087803b158015613a6657600080fd5b505af1158015613a7a573d6000803e3d6000fd5b505050506040513d6020811015613a9057600080fd5b506126bc9050565b6001600160a01b038316301415613ab957613ab4848383613b17565b6126bc565b6126bc8484848461423c565b613ad08484846134ad565b613adc8484848461438c565b6126bc5760405162461bcd60e51b81526004018080602001828103825260328152602001806156826032913960400191505060405180910390fd5b604080516001600160a01b038481166024830152604480830185905283518084039091018152606490920183526020820180516001600160e01b031663a9059cbb60e01b1781529251825160009485949389169392918291908083835b60208310613b935780518252601f199092019160209182019101613b74565b6001836020036101000a0380198251168184511680821785525050505050509050019150506000604051808303816000865af19150503d8060008114613bf5576040519150601f19603f3d011682016040523d82523d6000602084013e613bfa565b606091505b5091509150818015613c28575080511580613c285750808060200190516020811015613c2557600080fd5b50515b612112576040805162461bcd60e51b815260206004820152600260248201526114d560f21b604482015290519081900360640190fd5b600061131483836144f4565b5490565b60008060008360020b12613c85578260020b613c8d565b8260020b6000035b9050620d89e8811115613ccb576040805162461bcd60e51b81526020600482015260016024820152601560fa1b604482015290519081900360640190fd5b600060018216613cdf57600160801b613cf1565b6ffffcb933bd6fad37aa2d162d1a5940015b6001600160881b031690506002821615613d1b576ffff97272373d413259a46990580e213a0260801c5b6004821615613d3a576ffff2e50f5f656932ef12357cf3c7fdcc0260801c5b6008821615613d59576fffe5caca7e10e4e61c3624eaa0941cd00260801c5b6010821615613d78576fffcb9843d60f6159c9db58835c9266440260801c5b6020821615613d97576fff973b41fa98c081472e6896dfb254c00260801c5b6040821615613db6576fff2ea16466c96a3843ec78b326b528610260801c5b6080821615613dd5576ffe5dee046a99a2a811c461f1969c30530260801c5b610100821615613df5576ffcbe86c7900a88aedcffc83b479aa3a40260801c5b610200821615613e15576ff987a7253ac413176f2b074cf7815e540260801c5b610400821615613e35576ff3392b0822b70005940c7a398e4b70f30260801c5b610800821615613e55576fe7159475a2c29b7443b29c7fa6e889d90260801c5b611000821615613e75576fd097f3bdfd2022b8845ad8f792aa58250260801c5b612000821615613e95576fa9f746462d870fdf8a65dc1f90e061e50260801c5b614000821615613eb5576f70d869a156d2a1b890bb3df62baf32f70260801c5b618000821615613ed5576f31be135f97d08fd981231505542fcfa60260801c5b62010000821615613ef6576f09aa508b5b7a84e1c677de54f3e99bc90260801c5b62020000821615613f16576e5d6af8dedb81196699c329225ee6040260801c5b62040000821615613f35576d2216e584f5fa1ea926041bedfe980260801c5b62080000821615613f52576b048a170391f7dc42444e8fa20260801c5b60008460020b1315613f6d578060001981613f6957fe5b0490505b600160201b810615613f80576001613f83565b60005b60ff16602082901c0192505050919050565b6000836001600160a01b0316856001600160a01b03161115613fb5579293925b846001600160a01b0316866001600160a01b031611613fe057613fd985858561450c565b9050614050565b836001600160a01b0316866001600160a01b0316101561404257600061400787868661450c565b9050600061401687898661456f565b9050806001600160801b0316826001600160801b0316106140375780614039565b815b92505050614050565b61404d85858461456f565b90505b95945050505050565b600061131483836145ac565b60006113148383614672565b6000610f7f84846001600160a01b0385166146bc565b815460009082106140c95760405162461bcd60e51b81526004018080602001828103825260228152602001806156606022913960400191505060405180910390fd5b8260000182815481106140d857fe5b9060005260206000200154905092915050565b60006113148383614753565b81546000908190831061413b5760405162461bcd60e51b81526004018080602001828103825260228152602001806157dc6022913960400191505060405180910390fd5b600084600001848154811061414c57fe5b906000526020600020906002020190508060000154816001015492509250509250929050565b6000828152600184016020526040812054828161420d5760405162461bcd60e51b81526004018080602001828103825283818151815260200191508051906020019080838360005b838110156141d25781810151838201526020016141ba565b50505050905090810190601f1680156141ff5780820380516001836020036101000a031916815260200191505b509250505060405180910390fd5b5084600001600182038154811061422057fe5b9060005260206000209060020201600101549150509392505050565b604080516001600160a01b0385811660248301528481166044830152606480830185905283518084039091018152608490920183526020820180516001600160e01b03166323b872dd60e01b178152925182516000948594938a169392918291908083835b602083106142c05780518252601f1990920191602091820191016142a1565b6001836020036101000a0380198251168184511680821785525050505050509050019150506000604051808303816000865af19150503d8060008114614322576040519150601f19603f3d011682016040523d82523d6000602084013e614327565b606091505b5091509150818015614355575080511580614355575080806020019051602081101561435257600080fd5b50515b61251d576040805162461bcd60e51b815260206004820152600360248201526229aa2360e91b604482015290519081900360640190fd5b60006143a0846001600160a01b0316613712565b6143ac57506001610f7f565b60006144ba630a85bd0160e11b6143c1612e7b565b88878760405160240180856001600160a01b03168152602001846001600160a01b0316815260200183815260200180602001828103825283818151815260200191508051906020019080838360005b83811015614428578181015183820152602001614410565b50505050905090810190601f1680156144555780820380516001836020036101000a031916815260200191505b5095505050505050604051602081830303815290604052906001600160e01b0319166020820180516001600160e01b038381831617835250505050604051806060016040528060328152602001615682603291396001600160a01b0388169190614827565b905060008180602001905160208110156144d357600080fd5b50516001600160e01b031916630a85bd0160e11b1492505050949350505050565b60009081526001919091016020526040902054151590565b6000826001600160a01b0316846001600160a01b0316111561452c579192915b600061454f856001600160a01b0316856001600160a01b0316600160601b6130c9565b905061405061456a84838888036001600160a01b03166130c9565b614836565b6000826001600160a01b0316846001600160a01b0316111561458f579192915b610f7f61456a83600160601b8787036001600160a01b03166130c9565b6000818152600183016020526040812054801561466857835460001980830191908101906000908790839081106145df57fe5b90600052602060002001549050808760000184815481106145fc57fe5b60009182526020808320909101929092558281526001898101909252604090209084019055865487908061462c57fe5b60019003818190600052602060002001600090559055866001016000878152602001908152602001600020600090556001945050505050611317565b6000915050611317565b600061467e83836144f4565b6146b457508154600181810184556000848152602080822090930184905584548482528286019093526040902091909155611317565b506000611317565b6000828152600184016020526040812054806147215750506040805180820182528381526020808201848152865460018181018955600089815284812095516002909302909501918255915190820155865486845281880190925292909120556130c2565b8285600001600183038154811061473457fe5b90600052602060002090600202016001018190555060009150506130c2565b60008181526001830160205260408120548015614668578354600019808301919081019060009087908390811061478657fe5b90600052602060002090600202019050808760000184815481106147a657fe5b6000918252602080832084546002909302019182556001938401549184019190915583548252898301905260409020908401905586548790806147e557fe5b60008281526020808220600260001990940193840201828155600190810183905592909355888152898201909252604082209190915594506113179350505050565b6060610f7f848460008561484c565b806001600160801b038116811461067557600080fd5b60608247101561488d5760405162461bcd60e51b81526004018080602001828103825260268152602001806156ff6026913960400191505060405180910390fd5b61489685613712565b6148e7576040805162461bcd60e51b815260206004820152601d60248201527f416464726573733a2063616c6c20746f206e6f6e2d636f6e7472616374000000604482015290519081900360640190fd5b600080866001600160a01b031685876040518082805190602001908083835b602083106149255780518252601f199092019160209182019101614906565b6001836020036101000a03801982511681845116808217855250505050505090500191505060006040518083038185875af1925050503d8060008114614987576040519150601f19603f3d011682016040523d82523d6000602084013e61498c565b606091505b509150915061499c8282866149a7565b979650505050505050565b606083156149b65750816130c2565b8251156149c65782518084602001fd5b60405162461bcd60e51b81526020600482018181528451602484015284518593919283926044019190850190808383600083156141d25781810151838201526020016141ba565b50805460018160011615610100020316600290046000825580601f10614a335750614a51565b601f016020900490600052602060002090810190614a519190614a54565b50565b5b80821115614a695760008155600101614a55565b5090565b803561067581615609565b805161ffff8116811461067557600080fd5b803562ffffff8116811461067557600080fd5b600060208284031215614aae578081fd5b81356130c281615609565b60008060408385031215614acb578081fd5b8235614ad681615609565b91506020830135614ae681615609565b809150509250929050565b60008060008060808587031215614b06578182fd5b8435614b1181615609565b93506020850135614b2181615609565b9250614b2f60408601614a8a565b91506060850135614b3f81615609565b939692955090935050565b600080600060608486031215614b5e578081fd5b8335614b6981615609565b92506020840135614b7981615609565b929592945050506040919091013590565b60008060008060808587031215614b9f578182fd5b8435614baa81615609565b93506020850135614bba81615609565b92506040850135915060608501356001600160401b03811115614bdb578182fd5b8501601f81018713614beb578182fd5b8035614bfe614bf9826155bc565b615599565b818152886020838501011115614c12578384fd5b81602084016020830137908101602001929092525092959194509250565b60008060408385031215614c42578182fd5b8235614c4d81615609565b91506020830135614ae68161561e565b60008060408385031215614c6f578182fd5b8235614c7a81615609565b946020939093013593505050565b600080600060608486031215614c9c578081fd5b8335614ca781615609565b9250602084013591506040840135614cbe81615609565b809150509250925092565b60008060008060008060c08789031215614ce1578384fd5b8635614cec81615609565b955060208701359450604087013593506060870135614d0a81615650565b9598949750929560808101359460a0909101359350915050565b60008060208385031215614d36578182fd5b82356001600160401b0380821115614d4c578384fd5b818501915085601f830112614d5f578384fd5b813581811115614d6d578485fd5b8660208083028501011115614d80578485fd5b60209290920196919550909350505050565b600060208284031215614da3578081fd5b81356001600160e01b0319811681146130c2578182fd5b600060208284031215614dcb578081fd5b81356130c28161562c565b600060208284031215614de7578081fd5b81516001600160401b03811115614dfc578182fd5b8201601f81018413614e0c578182fd5b8051614e1a614bf9826155bc565b818152856020838501011115614e2e578384fd5b6140508260208301602086016155dd565b600060808284031215614e50578081fd5b50919050565b600060a08284031215614e50578081fd5b600060c08284031215614e50578081fd5b60008183036080811215614e8a578182fd5b604080519081016001600160401b038082118383101715614ea757fe5b816040526060841215614eb8578485fd5b60a0830193508184108185111715614ecc57fe5b508260405284359250614ede83615609565b918252602084013591614ef083615609565b826060830152614f0260408601614a8a565b60808301528152614f1560608501614a6d565b6020820152949350505050565b60006101608284031215614e50578081fd5b600060208284031215614f45578081fd5b81356130c28161563b565b60008060408385031215614f62578182fd5b8251614f6d8161563b565b6020840151909250614ae68161563b565b600080600080600060a08688031215614f95578283fd5b8551614fa08161563b565b8095505060208601519350604086015192506060860151614fc08161563b565b6080870151909250614fd18161563b565b809150509295509295909350565b600080600080600080600060e0888a031215614ff9578485fd5b875161500481615609565b60208901519097506150158161562c565b955061502360408901614a78565b945061503160608901614a78565b935061503f60808901614a78565b925060a088015161504f81615650565b60c08901519092506150608161561e565b8091505092959891949750929550565b600060208284031215615081578081fd5b61131482614a8a565b60006020828403121561509b578081fd5b5035919050565b600080604083850312156150b4578182fd5b823591506020830135614ae681615609565b600080604083850312156150d8578182fd5b505080516020909101519092909150565b600080600080606085870312156150fe578182fd5b843593506020850135925060408501356001600160401b0380821115615122578384fd5b818701915087601f830112615135578384fd5b813581811115615143578485fd5b886020828501011115615154578485fd5b95989497505060200194505050565b6000815180845261517b8160208601602086016155dd565b601f01601f19169290920160200192915050565b60020b9052565b6001600160801b03169052565b6000828483379101908152919050565b6001600160a01b0391909116815260200190565b6001600160a01b0386168152600285810b602083015284900b60408201526001600160801b038316606082015260a06080820181905260009061499c90830184615163565b6001600160a01b03959095168552600293840b60208601529190920b60408401526001600160801b03918216606084015216608082015260a00190565b6001600160a01b039390931683526001600160801b03918216602084015216604082015260600190565b6000602080830181845280855180835260408601915060408482028701019250838701855b828110156152c657603f198886030184526152b4858351615163565b94509285019290850190600101615298565b5092979650505050505050565b901515815260200190565b90815260200190565b6001600160a01b03929092168252602082015260400190565b600293840b81529190920b60208201526001600160801b03909116604082015260600190565b6000602082526113146020830184615163565b6020808252600c908201526b139bdd08185c1c1c9bdd995960a21b604082015260600190565b6020808252602c908201527f4552433732313a20617070726f76656420717565727920666f72206e6f6e657860408201526b34b9ba32b73a103a37b5b2b760a11b606082015260800190565b602080825260149082015273507269636520736c69707061676520636865636b60601b604082015260600190565b60208082526010908201526f125b9d985b1a59081d1bdad95b88125160821b604082015260600190565b6020808252600b908201526a139bdd0818db19585c995960aa1b604082015260600190565b815180516001600160a01b03908116835260208083015182168185015260409283015162ffffff1692840192909252920151909116606082015260800190565b6001600160801b039390931683526020830191909152604082015260600190565b9384526001600160801b039290921660208401526040830152606082015260800190565b918252602082015260400190565b6001600160601b038d1681526001600160a01b038c811660208301528b811660408301528a16606082015262ffffff89166080820152600288900b60a0820152610180810161550d60c083018961518f565b61551a60e0830188615196565b8561010083015284610120830152615536610140830185615196565b615544610160830184615196565b9d9c50505050505050505050505050565b6000808335601e1984360301811261556b578283fd5b8301803591506001600160401b03821115615584578283fd5b6020019150368190038213156136c957600080fd5b6040518181016001600160401b03811182821017156155b457fe5b604052919050565b60006001600160401b038211156155cf57fe5b50601f01601f191660200190565b60005b838110156155f85781810151838201526020016155e0565b838111156126bc5750506000910152565b6001600160a01b0381168114614a5157600080fd5b8015158114614a5157600080fd5b8060020b8114614a5157600080fd5b6001600160801b0381168114614a5157600080fd5b60ff81168114614a5157600080fdfe456e756d657261626c655365743a20696e646578206f7574206f6620626f756e64734552433732313a207472616e7366657220746f206e6f6e20455243373231526563656976657220696d706c656d656e7465724552433732315065726d69743a20617070726f76616c20746f2063757272656e74206f776e65724552433732313a207472616e7366657220746f20746865207a65726f2061646472657373416464726573733a20696e73756666696369656e742062616c616e636520666f722063616c6c4552433732313a206f70657261746f7220717565727920666f72206e6f6e6578697374656e7420746f6b656e4552433732313a20617070726f76652063616c6c6572206973206e6f74206f776e6572206e6f7220617070726f76656420666f7220616c6c4552433732313a2062616c616e636520717565727920666f7220746865207a65726f20616464726573734552433732313a206f776e657220717565727920666f72206e6f6e6578697374656e7420746f6b656e456e756d657261626c654d61703a20696e646578206f7574206f6620626f756e64733067048beee31b25b2f1681f88dac838c8bba36af25bfb2b7cf7473a5847e35f4552433732313a207472616e73666572206f6620746f6b656e2074686174206973206e6f74206f776e49ecf333e5b8c95c40fdafc95c1ad136e8914a8fb55e9dc8bb01eaa83a2df9adddf252ad1be2c89b69c2b068fc378daa952ba7f163c4a11628f55a4df523b3ef4552433732313a20617070726f76616c20746f2063757272656e74206f776e65724552433732313a207472616e736665722063616c6c6572206973206e6f74206f776e6572206e6f7220617070726f766564a2646970667358221220e8fb1c4dcb4c8b06628fed0e40427be9c9bf1f998e581d9a9d0302d828ca035f64736f6c63430007060033",
  "linkReferences": {},
  "deployedLinkReferences": {}
}